:101A44007B017A007900121745D28AD2AA7D017FE0
:101A5400807E25121988121911D290D294D2B4C260
:081A640091C295C2C3D2AF226A
:101ADE0090004874FFF0121A44C2831211E0900075
:0F1AEE0048EFF0F460F5B283E0FF12000380ECE4
:0B1C5800EF1FAC0670011E4C70F6225E
:0A1C630000007F127EEADEFEDFFCC7
:011C6D002254
:061C790000007F01DFFE08
:011C7F002242
:101C3100AD07AC06ED1DAE0470011C4E6005121C13
:041C41006380F122A9
:0B1C6E00EF1FAC0670011E4C70F62248
:1019E800546865204D736720517565756520697366
:1019F80020456D7074792C63616E27742067657457
:0F1A0800206F75742066726F6D2069740D0A006F
:041A6C0041004700EE
:10174500900049EBF0A3EAF0A3E9F0900049E0FB33
:10175500A3E0FAA3E02406F9E43AFAC003C002C004
:1017650001900049A3E0FAA3E0F912075E90004951
:10177500E0FBA3E0FAA3E02406F9E43AFAC003C0CB
:1017850002C001900049A3E0FAA3E0F9900003121A
:10179500080F7E007F407D00900049E0FBA3E0FA42
:1017A500A3E02406F9E43AFA12088E900049E0FB1A
:0D17B500A3E0FAA3E0F9900046E40206B6B6
:1014FE009000CBEBF0A3EAF0A3E9F09000CBE0FB79
:10150E00A3E0FAA3E0F9900046120644C3944040CB
:10151E00047F0180027F00EF60037F0022AF05E4AD
:10152E0075F00112073CEF1206A49000CBE0FBA36E
:10153E00E0FAA3E02446F9E43AFAC003C002C0017F
:10154E009000CBA3E0FAA3E0F912071CD082D0835F
:10155E00D0E06B7008E965827003EA6583702290B3
:10156E0000CBE0FBA3E0FAA3E02406F9E43AFAC0CC
:10157E0003C002C0019000CBA3E0FAA3E0F912076A
:10158E005E9000CBE0FBA3E0FAA3E0F99000467476
:07159E00011206717F01221A
:0B12B3009000BBEBF0A3EAF0A3E9F011
:1012BE00E4A3F09000BBE0FBA3E0FAA3E0F99000FA
:1012CE004612064470047F0180027F00EF600C7BA3
:1012DE00FF7A1979E8120A4C0213779000BBE0FBF3
:1012EE00A3E0FAA3E0F9900003E475F0011207DD24
:1012FE0012062B9000BEF09000BBE0FBA3E0FAA319
:10130E00E0F99000031207ADC003C002C0019000C7
:10131E00BBE0FBA3E0FAA3E02446F9E43AFAD0825C
:10132E00D083D0E06B7008E965827003EA65837044
:10133E00259000BBE0FBA3E0FAA3E02406F9E43A13
:10134E00FAC003C002C0019000BBA3E0FAA3E0F90B
:10135E0090000312080F9000BBE0FBA3E0FAA3E09D
:0E136E00F990004674FF1206719000BEE0FF79
:01137C00224E
:1019880053877F759850EDB40105438E0480035347
:101998008EFBAB07AA06E4F9F87F807EBBFDFC123C
:1019A80018CDEFF404F59C438E01438E10D2AC227F
:080003008F993099FDC299228A
:101C450012062BFF600C120003740129F9E43AFA1D
:031C550080EE22FC
:03002300021B1CA1
:091B1C00C0E0C0D075D000C00784
:0E1B2500309809C298AF991200038002C2994D
:071B3300D007D0D0D0E03252
:061C8000AE071200032272
:101BBD00E4FEC2B1EF1392B0EFC313FFD2B10EEE3C
:071BCD00B408EFD2C3C2C34C
:011BD40022EE
:101BD500E4FEC297EF139296EFC313FFD2970EEE72
:071BE500B408EFD295C29590
:011BEC0022D6
:101BED00E4FEC293EF139292EFC313FFD2930EEE66
:071BFD00B408EFD291C29180
:011C040022BD
:101B5600E4FEFDEE25E0FEEF30E004EE4401FEEF8C
:0A1B6600C313FF0DEDB408EBAF064A
:011B70002252
:061C8600121B568FA02284
:0810F0009000BFEEF0A3EFF049
:1010F800A374FEF0E4A3F0E49000C2F09000C1E015
:10110800FF121C86E0FF780108800123D8FD9000BB
:10111800C1F09000BFE0FEA3E0FF121C319000C2B6
:10112800E004F0E0C3940840D37FFF121C86E490EB
:1011380000C2F09000C1E0FF121BBDE0FF7801087B
:10114800800123D8FD9000C1F0C2B49000BFE0FE3A
:10115800A3E0FF121C31D2B49000C2E004F0E0C357
:10116800940840CFE49000C2F09000C1E0FF121B49
:10117800D5E0FF780108800123D8FD9000C1F0C2B6
:10118800949000BFE0FEA3E0FF121C31D2949000BF
:10119800C2E004F0E0C3940840CFE49000C2F090AD
:1011A80000C2E0C3940840030210FF9000C1E0FFB2
:1011B800121BEDE0FF780108800123D8FD9000C1E3
:1011C800F0C2909000BFE0FEA3E0FF121C31D29065
:0811D8009000C2E004F080C7A2
:1015A5004453313330322069732072756E6E696E23
:1015B50067210D0A0057726974652054696D6520AD
:1015C500746F204453313330322073756363657310
:1015D5007365640D0A003230253032782D2530329E
:1015E500782D2530327820253032783A25303278FA
:1015F5003A253032780D0A00636C656172204D73AF
:10160500670D0A004920646F6E2774206B6E6F7733
:1016150020776861742069732077726F6E67210087
:0E16250016030914092900000000000000004F
:1019110090004974AAF0784A7C007D017BFF7A1619
:1019210079257E007F071206057FC0121C1C9000DE
:1019310049E06F60147B017A00794A12183875A06A
:10194100FE900049E0FF021B8B7BFF7A1579A512FF
:021951000A4C3E
:011953002271
:101B7100E4FEEF30E004D2B68002C2B6D2B5C2B5FF
:091B8100EFC313FF0EEEB408E9F6
:011B8A002238
:101AFD00E4FFFEEEC313FE30B6054480FE8004EE17
:0E1B0D00547FFED2B5C2B50FEFB408E7AF06A5
:011B1B0022A7
:101C0500C2B7C2B5D2B7EF54FEFF121B71AF0512B2
:071C15001B71D2B5C2B7221A
:101C1C00C2B7C2B5D2B7EF4401FF121B71121AFD45
:041C2C00D2B5C2B7B4
:011C30002291
:0B183800900051EBF0A3EAF0A3E9F0F0
:10184300E4FCA3748CF0E4FD7F8E121C057D807F85
:1018530080121C05900054E0FF900051E0FBA3E0D0
:10186300FAA3E0F98C82758300120644FD121C056D
:10187300900054E024FEF00CECB407D87D807F8EFA
:03188300021C053F
:1019B800E4FD9000CEEBF0A3EAF0A3E9F07C8CAF55
:1019C80004121C1C9000CEE0FBA3E0FAA3E0F98D02
:0F19D80082758300EF1206B61C1C0DEDB407E0FC
:0119E70022DD
:101B8B00AC07E4FD7F8E121C05AF04AD077FC012BE
:091B9B001C057D807F8E021C05F3
:100FC40078AB7C007D017BFF7A16792C7E007F074D
:100FD400120605E49000B2F0900047E024FE605A47
:100FE4001470030210A2240270EEE4900047F09003
:100FF4000046E0B407E2E49000B2F0900046E0FF5F
:101004009000B2E0C39F50207B017A007900121255
:10101400B39000B2E024ABF582E43400F583EFF042
:101024009000B2E004F080D37B017A0079AB12180F
:10103400387BFF7A1579BA0210DEE4900047F07B22
:10104400017A0079AB1219B87BFF7A1579DB90002D
:10105400ABE0FF900054E4F0A3EFF09000ADE0FFAC
:10106400900056E4F0A3EFF09000AEE0FF9000583B
:10107400E4F0A3EFF09000AFE0FF90005AE4F0A397
:10108400EFF09000B0E0FF90005CE4F0A3EFF0908C
:1010940000B1E0FF90005EE4F0A3EFF0803CE49048
:1010A4000047F09000B2F0900046E0FF9000B2E0FC
:1010B400C39F50117B017A0079001212B39000B2E1
:1010C400E004F080E2900046E070047F0180027F3B
:1010D40000EF600C7BFF7A1579FD120A4C020FDCDD
:0C10E4007BFF7A167909120A4C020FDC1F
:101A1700E49000D5F0C2C07FF47E01121C58D2C0FA
:101A27007F327E00121C58A2C0E4339000D5F07FAD
:0C1A3700C27E01121C5830C002C322D332
:011A43002280
:10188600E49000D1F0A3F09000D1F09000D2E0C334
:1018960013F0C2C07F047E00121C58D2C07F0A7E9D
:1018A60000121C5830C0079000D2E04480F07F3C04
:1018B6007E00121C589000D1E004F0E0C39408406A
:0618C600CA9000D2E0FF11
:0118CC0022F9
:051954009000D3EFF04C
:10195900E4A3F0F0C2C07F047E00121C589000D3AB
:10196900E01392C07F327E00121C58D2C09000D37F
:0E197900E0C313F0A3E004F0E0C3940840D6EE
:01198700223D
:1017C200121A177FCC1219547F441219547F0A7EC1
:1017D20000121C58121A177FCC1219547FBE12190C
:1017E200541218869000C4EFF01218869000C3EFCE
:1017F200F0E49000C5F0A3F01218869000C6E00451
:10180200F070069000C5E004F0C39000C6E09407B3
:101812009000C5E0940040E09000C3E0FEA3E0FD2C
:10182200EDFFAC06E4120131E4FBFA7920783F12B5
:05183200002612016A0E
:01183700228E
:04000E0000000000EE
:0E1A7000C10BC10CC1094100AAFF4100840056
:10137D00E4FFC2AA90008104F0A37400F0A374A648
:10138D00F0E4FEE4FD74852FF582E43400F583E08E
:10139D00FCD39404402AEC94095025900081E0FB85
:1013AD00A3E0FAA3E0F912062BC3131206A49000D2
:1013BD0081E0FBA3E0FAA3E0F912062B547F8039FC
:1013CD0074852FF582E43400F583E0FCD3940B4053
:1013DD002BEC94105026900081E0FBA3E0FAA3E0E3
:1013ED00F912062BC3131206A4900081E0FBA3E0B3
:1013FD00FAA3E0F912062B44801206A40F0DED643A
:10140D00087082900082E475F0011206D80EEE6429
:10141D000460030213909000A8E0FFFDA3E02DFDF2
:10142D00E433FCEDF44C7007A3EFF0D20A80069084
:07143D0000AA74FFF0D2AA1F
:011444002285
:030013000216BF13
:0D16BF00C0E0C0F0C083C082C0D075D0086C
:1016CC00D28E9000B3E09000BAF09000B3E4F0300A
:1016DC000B10C20B900084F09000B3F0C20CC20946
:1016EC00804CA209720C50289000BAE0FF90008444
:1016FC00E0FE04F074852EF582E43400F583EFF0FF
:10170C00900084E0B42009E4F0C20CC28E12137D68
:10171C009000BAE0FFD394354007D20C900084E4DB
:0E172C00F0EFD394724007D209900084E4F0ED
:0B173A00D0D0D082D083D0F0D0E032BD
:1011E000E490004BF0A3F0A3F0784E7C007D017BEF
:1011F000FF7A00790EFE7F04120605E4900049F0A4
:101200007F907E01121C6E30B3037FFF2290004955
:10121000E004F0E0C3941340E730B3FDE4900049EC
:10122000F07FF47E01121C6E20B3037FFF2290003A
:1012300049E004F0E0C3940540E720B3FDE49000EA
:1012400049F0E490004AF030B3FD30B3167F647E7D
:1012500000121C6E90004BE004F0E0C3941640EACC
:101260007FFF2290004CE0C313F090004BE0C3944A
:10127000084005A3E04480F0E490004BF090004A61
:10128000E004F0E0C3940840BE90004CE0FF900002
:1012900049E0244EF582E43400F583EFF0900049F4
:1012A000E004F0E0C394044099900050E0FF900007
:0212B0004DF0FF
:0112B2002219
:100E6400FBFFDBEFDBEDDBDE80013BBFBB7DFBFD8E
:100E7400FBFB0037FBCFBBD7CBBBFA7DFBE0FFFF0F
:100E8400FEFFD97DCB7BD376DB6EDB1EC84DB3551D
:100E9400BB5BBB5BB3558B4D3B7EBAFEF9FEFFFFDC
:100EA400FF7FFEFFF9FFE0001FFFFDF7FBCFE73FE9
:100EB4000FFDEFFEEC01EFFFEF7FEB9FE7E7FFFF96
:100EC400DFF7D82D5BBE9B81DBBFD82FDFF6FBF9A4
:100ED400FBC7003FFBFFB803CBFDFBFDFBF1FFFFAE
:100EE400F7FDF7BBF05707EFF797F079FFFFFEFF29
:100EF400BEFDBEFEB801B6FFAEFF9EFFFEFFFFFFC4
:100F0400FF7FFEFFF9FFE00017FFEFADC1AD2D5BE2
:100F1400ACB5A96EA5818DDFEDA7E17BFFFDFFFFD9
:100F2400FF7FFEFFF9FFE0001FFFFDF7FBCFE73F68
:100F34000FFDEFFEEC01EFFFEF7FEB9FE7E7FFFF15
:100F4400FFFEFFFDFFF3FF8F007FFFBEFFCDFFFB22
:100F5400FFE7FF1F00FFFF1FFFE7FFF9FFFEFFFF93
:100F6400FEFBFEFBEEF7EEEFEEDFEEBFEE7F0000E2
:100F7400EE7FEEBFEEDFEEEFEEF7FEFBFEFBFFFFD4
:100F8400FDFFFDFEBDFDCC03FFFDFBFABBE6B81E75
:100F9400BBFEBBFEB806BBFABBFAFBC2FFFEFFFFFB
:100FA400DFFFDF80DFBFD0BFDEB7D4A35A979A3705
:100FB400DAB7D4A7DEB3D0BDDFBEDF81DFFFFFFF2A
:10144500E49000C7F0A3F0A3F0A3F075A0FF20B2CD
:10145500FD9000CAE004F070069000C9E004F0D3E6
:101465009000CAE094A09000C9E094004004E4F024
:10147500A3F09000C9E0FFA3E09000C7CFF0A3EF71
:10148500F09000CAE024A0FF9000C9E03400FE906F
:1014950000C7E0FCA3E0FDC39FEC9E50B1ED25E045
:1014A500FFEC33FE74642FF582740E3EF583E493EE
:1014B500FF121BED9000C8E025E0FF9000C7E03368
:1014C500FE74652FF582740E3EF583E493FF121BBF
:1014D500D57FFF121BBDC290C294C2B47FAA7E0005
:1014E500121C6ED290D294D2B49000C8E004F07071
:0914F500909000C7E004F080882B
:101A7E004100B4C44100B6004200B800004100B5B8
:051A8E00004100B7005B
:101B3A00538E7F5389F04389019000B6E0F58A906D
:0C1B4A0000B4E0F58CC28DD2A9D28C2230
:03000B00021A9442
:101A9400C0E0C083C0829000B6E0F58A9000B4E054
:101AA400F58C9000B9E004F070069000B8E004F002
:071AB400D082D083D0E032A4
:101BA400538EBF53890F4389209000B7E0F58B858E
:091BB4008B8DC28FD2ABC28E22D0
:03001B00021ABB0B
:101ABB00C0E0C083C082C0D075D0109000B3E0FFEF
:101ACB0004F0EFD394FA4002D20BD0D0D082D08363
:031ADB00D0E03226
:10002600EC4D6011E8497017ED33EC3304600DE4D4
:10003600FCFFFEFD22E933E8330470F80201D61214
:1000460001A158046009E4CC248150062850090215
:1000560001E02840030201DDC0E0EB4A7044B980AC
:1000660006D0E0FB0201CCEF4E701CBD8008EBFF12
:10007600EAFEE9FD80EBE98DF0A4FEE5F002010F52
:10008600E9CDF9EAFEEBFFEF89F0A4FCE5F0CE89B5
:10009600F0A42EFFE435F0CD89F0A42DFEE435F072
:1000A6008067EF4E7005BD80D780C3EF8BF0A4ACA0
:1000B600F0EE8BF0A42CFCE435F0F8EF8AF0A42CDB
:1000C600E5F038FCE433CB8DF0A42CFCE5F03BF8EE
:1000D600EE8AF0A42CFCE5F038F8E433CF89F0A4DE
:1000E6002CFCE5F038CF3400CE89F0A42FFFE5F0E4
:1000F6003EFEE433C98DF0A42EFEE5F039CD8AF03C
:10010600A42FFFE5F03EFEE43DFD33D0E0FB5007B3
:100116000BBB000F0201E0EC2CFCEF33FFEE33FECD
:06012600ED33FD0201B8FB
:10012C0075F020800E75F010800575F0087D007E4E
:10013C00007F003392D530D5031206EEEC3340101D
:10014C00EF33FFEE33FEED33FDEC33FCD5F0ED2257
:0E015C00E5F0247EA2D513CC92E7CDCEFF2293
:10016A00EDD2E7CD33EC3392D524814006E4FFFE8D
:10017A00FDFC22FCE4CFCECDCC24E0501174FF80EC
:10018A00EDC3CC13CCCD13CDCE13CECF13CF047089
:07019A00F030D5DE0206EE95
:1009E100E5182454F582E43400F583E005182290DB
:1009F1000051300703900054E475F0011206FC0227
:100A0100062B2000E97F2ED2008018EF540F24908E
:100A1100D43440D4FF30040BEF24BFB41A00500388
:100A21002461FFE51960021519051CE51C7002051A
:100A31001B30070E900051E475F0011206FCEF0225
:100A410006A4021C807403D2078003E4C207F518D0
:100A5100900051120713E4F519F51BF51CE5196017
:100A6100077F20120A2480F5751AFFC201C200C255
:100A710002C203C205C206C2081209F0FF700D309E
:100A810007057F00120A35AF1CAE1B22B4255FC2D9
:100A9100D5C2041209F0FF24D0B40A00501A75F02F
:100AA1000A781930D50508B6FF0106C6A426F62036
:100AB100D5047002D20380D924CFB41A00EF5004B8
:100AC100C2E5D204020D27D20180C6D20080C0D275
:100AD1000280BCD2D580BAD20580B47F20120A240C
:100AE1002002077401B5190040F11209E1FF120A51
:100AF10024020A5ED208D20680951209E1FB12098E
:100B0100E1FA1209E1F94A4B700679257A0E7BFF69
:100B110020022EE519602A7E008E8275830012065E
:100B21004460060EEE651A70F0C2D5EBC0E0EAC073
:100B3100E0E9C0E0EE120D88D0E0F9D0E0FAD0E0B3
:100B4100FB12062BFF60AAEBC0E0EAC0E0E9C0E0BF
:100B5100120A24D0E02401F9D0E03400FAD0E0FBFD
:100B6100E51A0460DCD51AD98087D20280A2120D61
:100B71006A60F7E51A7001041201EBA91A600DE52C
:100B81001A600914F51A120E12EF60F3EA30E70247
:100B9100F404C3995079EAF4251A0430E701E40416
:100BA100F51A800D120D6A60C1EA051A251A1201A3
:100BB100EBEA900080F030E701E4251A04D51A042D
:100BC10020050114120D88E4C0E0120E129000807D
:100BD100E0601320E70714F0120A0C802204F0D021
:100BE100E014C0E07F00120A0CE51A6007120A0344
:100BF100151A800B300503120A03D0E0020A5ED0F9
:100C0100E00480C4120D6A609EE51A041201EB90A3
:100C11000080EAF0E51A2005026001042404120DA7
:010C2100884A
:100C220074FF04C0E0120E12120A0CE51A2005022B
:100C32006003120A03D0E0B51AE87F45120A169043
:100C42000080E07F2B30E7047F2DF404C0E0120A1D
:100C520024D0E075F00A84C0F0120A0DD0E0120A26
:100C62000D020A5E791080027908C206C208800865
:100C7200D2D5790A8004790AC2D5E51A047002F540
:100C82001AE4FAFDFEFF1209E1FC7B0820011312AF
:100C920009E1FD7B1030000A1209E1FE1209E1FFB1
:100CA2007B20EC3382D592D55013C3E43000069FEB
:100CB200FFE49EFEE42001039DFDE49CFCE4CBF8EE
:100CC200C201EC700CCFCECDCCE824F8F870F380E2
:100CD20017C3EF33FFEE33FEED33FDEC33FCEB33A2
:100CE200FB994002FB0FD8E9EB300105F8D0E0C4D4
:100CF20048B201C0E00AEC4D4E4F78207B0070C232
:100D0200EAB51A0040BCC0E0120D8AD0F0D0E02053
:100D12000104C4C0E0C4B201C0F0120A0DD0F0D583
:100D2200F0EB020A5E1208680AFB530C66580ACC02
:100D32004C0AC8420C6A4F0C72440C72490AE143D5
:100D42000C78550BA5460C05450B6F470E45500A0E
:100D5200D02D0AD42E0AF72B0AD8230AF5200E2EFC
:100D62002A0A904800000AEFE51AB4FF03751A0632
:100D72001209E1FC1209E1FD1209E1FE1209E1FF8B
:100D8200900079020228790AA2D5200314300509BD
:100D9200B910020404B9080104A2D52006025001C8
:100DA200042002689202B519005034C0E07F20305E
:100DB20003197F30A20272067205500F120DE1C2B2
:100DC20002C206C205C2087F30800F300503E9C0A7
:100DD200E0120A24300503D0E0F9D0E0B519CC3096
:100DE20005177F30B9100C120A247F583004077F90
:100DF200788003B90803120A243002057F2D020A03
:100E0200247F202008F87F2B2006F322920280CF35
:100E12007F00B40700500B2479F582E43400F58397
:100E2200E0FF22286E756C6C2900D2011209E130B4
:100E320001F8C201781930D50108F6020A902D5046
:100E42004349581209E12403B405004001E4900E1D
:100E52004093120A15743A120A15D2037519040244
:020E62000C661C
:1001A100E9D2E7C933E833F892D5EDD2E7CD33ECA4
:0701B10033FC5002B2D5221D
:1001B800EC30E7100FBF000C0EBE00080DBD0004A8
:1001C8000BEB6014A2D5EB13FCED92E7FD2274FF54
:1001D800FCFDFEFF22E480F8A2D574FF13FC7D80AD
:0301E800E480EFC1
:1001EB00F920E73624F950037907E4F42402FBE500
:1001FB0082158270021583DBF6E024FB501BE9604D
:10020B0014E4F0E582158270021583E004F0B40A61
:0D021B0008E4F0D9EE7401F00A22C2D522E9
:10022800ED33EC3392D5FA602AB4FF33EDC2E77BA5
:10023800FF60067A02794DE4227A02795620D504C5
:100248007A027951224E614E002B494E46002D49C3
:100258004E4600E47A08F0A3DAFC7B00740722C05B
:1002680083C082ECC0E0EDC0E0EEC0E0EFC0E0EAA1
:1002780075F010A4CAABF075F04DA42BFBE435F073
:10028800FCEA2410FAEB34C5FBEC34D9FCEDC2E7E8
:10029800FF75F056A4F42411C5F0F434C58FF0A40A
:1002A8002AE5F03BE43CF020E7141204F5D0E0FF27
:1002B800D0E0FED0E0FDD0E0FC1204288014F40465
:1002C8001204F5D0E0FFD0E0FED0E0FDD0E0FC1253
:1002D8000026D082D083E0FAEDD2E7CD33EC332488
:1002E80082FBE4C3CF33CFCE33CECD33CD33DBF374
:1002F8007B0775F00A846004F0A31B0AE5F0F0A3FD
:100308008FF0740AA4FFACF08EF0740AA42CFEAC33
:10031800F050010C8DF0740AA42CFDE435F0F0A324
:05032800DBDE7407227A
:10032D000201D6E86480F8E933E83360110460F027
:10033D00ED33EC337009E8FCE9FDEAFEEBFF220436
:10034D0060DED3EB9FEA9EE99DE8C2E78CF0C2F731
:10035D0095F0400CE8CCF8E9CDF9EACEFAEBCFFBFD
:10036D001201A185D0F05804700320D5B3E80470B4
:10037D00075002B2D50201E092D5EC0460F7E4CC4F
:10038D00C0E0C398F8603B94186008400DD0E0FBC6
:10039D000201B8E4FBFAC9FC8028E830E406E4C9A0
:1003AD00FBE4CAFCE830E305E4C9CACBFCE854071A
:1003BD006010F8C3E913F9EA13FAEB13FBEC13FC25
:1003CD00D8F130F52FC3E49CFCEF9BFFEE9AFEEDC8
:1003DD0099FDD0E0FBEF4E4D4C701222DB03020174
:1003ED00DDEC2CFCEF33FFEE33FEED33FDED30E7AE
:1003FD00EB0201B8EF2BFFEE3AFEED39FDD0E0FB3D
:10040D0050130BBB00030201E0ED13FDEE13FEEFE5
:08041D0013FFEC13FC0201B80F
:100425000201E0EC5D046005E8590470030201D6A1
:100435001201A1580460F6EC4860F2EC7004FDFE70
:10044500FF22C860DB2481C85009C39860025006AA
:100455000201DD9850CAF582E9294B4A7005AB8245
:100465000201CC75F0007C1A7880C3EF9BEE9AED03
:1004750099400DC3EF9BFFEE9AFEED99FDE842F022
:10048500DC23ACF0D0E0FFD0E0FED0E0FDAB822075
:10049500E7101BEB60BAEC2CFCEF33FFEE33FEEDFF
:1004A50033FD0201B8E803F830E705C0F075F00048
:1004B500EF2FFFEE33FEED33FD40B830E7C280AAE3
:1004C5003F8000004120000042C80000447A00003F
:1004D500461C400047C35000497424004B189680C1
:1004E5004CBEBC205A0E1BCA6753C21C749DC5AEB8
:1004F500FB60065407601C2323120523EB54386068
:100505000912050F12051E120026ECF8EDF9EEFA98
:10051500EFCB22EB12051E80F1543803241C900406
:10052500C5FE93FC0EEE93FD0EEE930ECE93FF22C9
:03000000021633B2
:0C163300787FE4F6D8FD75812102167A5C
:10053500E709F608DFFA8046E709F208DFFA803EA8
:1005450088828C83E709F0A3DFFA8032E309F60895
:10055500DFFA8078E309F208DFFA807088828C83FD
:10056500E309F0A3DFFA806489828A83E0A3F608B1
:10057500DFFA805889828A83E0A3F208DFFA804C8B
:1005850080D280FA80C680D4806980F28033801062
:1005950080A680EA809A80A880DA80E280CA8033CB
:1005A50089828A83ECFAE493A3C8C582C8CCC58343
:1005B500CCF0A3C8C582C8CCC583CCDFE9DEE78013
:1005C5000D89828A83E493A3F608DFF9ECFAA9F092
:1005D500EDFB2289828A83ECFAE0A3C8C582C8CCE8
:1005E500C583CCF0A3C8C582C8CCC583CCDFEADE01
:1005F500E880DB89828A83E493A3F208DFF980CC63
:1006050088F0EF60010E4E60C388F0ED2402B4045B
:100615000050B9F582EB2402B4040050AF23234502
:060625008223900585739D
:10062B00BB010689828A83E0225002E722BBFE02CD
:09063B00E32289828A83E4932200
:10064400BB010CE58229F582E5833AF583E022506B
:1006540006E92582F8E622BBFE06E92582F8E222B5
:0D066400E58229F582E5833AF583E49322CF
:10067100BB010FF8E58229F582E5833AF583E0288D
:10068100F0225009C58229F8E58226F622BBFE092F
:10069100C58229F8E22582F222F8EA2583F583E969
:0306A10093282279
:1006A400BB010689828A83F0225002F722BBFE0135
:0206B400F3222F
:1006B600F8BB010DE58229F582E5833AF583E8F07A
:1006C600225006E92582C8F622BBFE05E92582C826
:0206D600F2220E
:1006D800C5F0F8A3E028F0C5F0F8E58215827002AD
:0606E8001583E038F0224A
:1018CD00C2D5E830E70FB2D5E4C39BFBE49AFAE446
:1018DD0099F9E498F8EC30E717B2D512190312080C
:1018ED00F6E4C39BFBE49AFAE499F9E498F88003D3
:1018FD001208F630D50DE4C39FFFE49EFEE49DFD76
:04190D00E49CFC2238
:0E06EE00C3E49FFFE49EFEE49DFDE49CFC221D
:1006FC00F8E0FBA3A3E0F925F0F0E5821582700287
:07070C001583E0FA38F0222A
:09071300EBF0A3EAF0A3E9F022E7
:10071C00BB010789828A830209AA5005E9F80209FC
:10072C0088BBFE05E9F80209B389828A830209D5E0
:10073C00BB010789828A830206FC5006C9F8C902EC
:10074C000991BBFE06C9F8C90209BC89828A8302D9
:02075C0009D5BD
:10075E00BB011A89828A83D0F0D0E0F8D0E0F9D0BC
:10076E00E0FAD0E0FBE8C0E0C0F00207135016E953
:10077E00F8D083D082D0E0F9D0E0FAD0E0FBC0828E
:10078E00C0830209A1BBFE16E9F8D083D082D0E067
:0F079E00F9D0E0FAD0E0FBC082C0830209CC2280
:1007AD00BB010DE58229F582E5833AF5830209AA9D
:1007BD005007E92582F8020988BBFE07E92582F872
:1007CD000209B3E58229F582E5833AF5830209D55D
:1007DD00BB010DC58229C582C5833AC5830206FCBE
:1007ED005008F8E92582C8020991BBFE08F8E925F1
:1007FD0082C80209BCC58229C582C5833AC5830258
:02080D0009D50B
:10080F00BB0120E58229F582E5833AF583D0F0D04C
:10081F00E0F8D0E0F9D0E0FAD0E0FBE8C0E0C0F0BB
:10082F000207135018E92582F8D083D082D0E0F95F
:10083F00D0E0FAD0E0FBC082C0830209A1BBFE1852
:10084F00E92582F8D083D082D0E0F9D0E0FAD0E069
:09085F00FBC082C0830209CC2217
:10086800D083D082F8E4937012740193700DA3A31F
:1008780093F8740193F5828883E473740293686033
:06088800EFA3A3A380DF33
:10088E00EF4E6012EF60010EEDBB010B89828A8381
:10089E00F0A3DFFCDEFA2289F05007F709DFFCA98E
:0C08AE00F022BBFEFCF309DFFCA9F022E5
:10163F00021ADEE493A3F8E493A34003F68001F2C9
:10164F0008DFF48029E493A3F85407240CC8C333AC
:10165F00C4540F4420C8834004F456800146F6DF7B
:10166F00E4800B0102040810204080901A6CE47E85
:10167F00019360BCA3FF543F30E509541FFEE49370
:10168F00A360010ECF54C025E060A840B8E493A337
:10169F00FAE493A3F8E493A3C8C582C8CAC583CA62
:1016AF00F0A3C8C582C8CAC583CADFE9DEE780BE1A
:011A93000052
:1008BA0075F008758200EF2FFFEE33FECD33CDCCF5
:1008CA0033CCC58233C5829BED9AEC99E582984078
:1008DA000CF582EE9BFEED9AFDEC99FC0FD5F0D655
:1008EA00E4CEFBE4CDFAE4CCF9A88222B800C1B97F
:1008FA000059BA002DEC8BF084CFCECDFCE5F0CBBD
:10090A00F97818EF2FFFEE33FEED33FDEC33FCEBF5
:10091A0033FB10D703994004EB99FB0FD8E5E4F9B0
:10092A00FA227818EF2FFFEE33FEED33FDEC33FC9D
:10093A00C933C910D7059BE99A4007EC9BFCE99A91
:10094A00F90FD8E0E4C9FAE4CCFB2275F010EF2FD6
:10095A00FFEE33FEED33FDCC33CCC833C810D707D6
:10096A009BEC9AE899400AED9BFDEC9AFCE899F811
:0E097A000FD5F0DAE4CDFBE4CCFAE4C8F922A4
:09098800E6FB08E6FA08E6F92294
:10099100FAE6FB0808E6F925F0F618E6CA3AF62267
:0909A100EBF608EAF608E9F6227B
:0909AA00E0FBA3E0FAA3E0F9224E
:0909B300E2FB08E2FA08E2F92275
:1009BC00FAE2FB0808E2F925F0F218E2CA3AF22250
:0909CC00EBF208EAF208E9F2225C
:0C09D500E493FB740193FA740293F9227E
:00000001FF
