:101755001216FBD288D2A8D28AD2AA7D017F807EBA
:101765002512163C12181412189812158BD290D205
:0C17750094D2B4C291C295C2C3D2AF227C
:10192900121755C283300AFDC20AB2839000A9E09A
:06193900FF1219B280EF5D
:0B199C00EF1FAC0670011E4C70F6221D
:0A19A70000007F127EEADEFEDFFC86
:0119B1002213
:10196900AD07AC06ED1DAE0470011C4E60051219E1
:04197900A780F12230
:1016CC00546865204D736720517565756520697385
:1016DC0020456D7074792C63616E27742067657476
:0F16EC00206F75742066726F6D2069740D0A008F
:0417810041004700DC
:1016FB009000007401F0A37400F0A37406F0F9A33A
:10170B007401F0A37400F0A3E9F07E007F407D002C
:0D171B007B017A00120725E4900046F022C1
:10141000900046E0C3944040047E0180027E00EECE
:1014200060037F0022900000E0FBA3E475F001124E
:1014300006BBA9F0FAEF120671900000E0FBA3E0F2
:10144000FAA3E0F9EB8A8389826401700A74466525
:1014500082700474006583700D90000004F0A37422
:0F14600000F0A37406F0900046E004F07F012234
:1013A100E49000D3F0900046E070047F0180027F5A
:1013B10000EF600B7BFF7A1679CC12088A804A9085
:1013C1000003E0FBA3E475F0011206BBA9F0FA12D9
:1013D100062B9000D3F0900003E0FBA3E0FAA3E01A
:1013E100F9EB8A8389826401700A7446658270040C
:1013F10074006583700D90000304F0A37400F0A3E2
:0E1401007406F0900046E014F09000D3E0FF77
:01140F0022BA
:10163C0053877F759850EDB40105438E0480035396
:10164C008EFBAB07AA06E4F9F87F807EBBFDFC128B
:10165C001504EFF404F59C438E01438E10D2AC229A
:0819B2008F993099FDC29922C2
:030023000215487B
:10154800C0E0C0F0C083C082C0D075D000C000C069
:0915580001C002C003C006C00777
:1015610030980EC298AE99AF061219B212141080BB
:0315710002C2991A
:10157400D007D006D003D002D001D000D0D0D08282
:07158400D083D0F0D0E0326B
:0619BA00AE071219B22273
:1018CA00E4FEC2B1EF1392B0EFC313FFD2B10EEE32
:0718DA00B408EFD2C3C2C342
:0118E10022E4
:1018E200E4FEC297EF139296EFC313FFD2970EEE68
:0718F200B408EFD295C29586
:0118F90022CC
:1018FA00E4FEC293EF139292EFC313FFD2930EEE5C
:07190A00B408EFD291C29175
:0119110022B3
:10183000E4FEFDEE25E0FEEF30E004EE4401FEEFB5
:0A184000C313FF0DEDB408EBAF0673
:01184A00227B
:0619C0001218308FA02276
:080F22009000BAEEF0A3EFF01D
:100F2A00A374FEF0E4A3F0E49000BDF09000BCE0EE
:100F3A00FF1219C0E0FF780108800123D8FD900054
:100F4A00BCF09000BAE0FEA3E0FF1219699000BD60
:100F5A00E004F0E0C3940840D37FFF1219C0E49084
:100F6A0000BDF09000BCE0FF1218CAE0FF7801084B
:100F7A00800123D8FD9000BCF0C2B49000BAE0FE14
:100F8A00A3E0FF121969D2B49000BDE004F0E0C3F7
:100F9A00940840CFE49000BDF09000BCE0FF121826
:100FAA00E2E0FF780108800123D8FD9000BCF0C27E
:100FBA00949000BAE0FEA3E0FF121969D29490005F
:100FCA00BDE004F0E0C3940840CFE49000BDF09087
:100FDA0000BDE0C394084003020F319000BCE0FF5B
:100FEA001218FAE0FF780108800123D8FD9000BCAE
:100FFA00F0C2909000BAE0FEA3E0FF121969D29005
:08100A009000BDE004F080C776
:10118B004453313330322069732072756E6E696E41
:10119B0067210D0A0057726974652054696D6520CB
:1011AB00746F20445331333032207375636365732E
:1011BB007365640D0A003230253032782D253032BC
:1011CB00782D2530327820253032783A2530327818
:1011DB003A253032780D0A00636C656172204D73CD
:1011EB00670D0A004920646F6E2774206B6E6F7752
:1011FB0020776861742069732077726F6E672100A6
:0E120B0016030914092900000000000000006D
:10158B0090004874AAF078497C007D017BFF7A12A9
:10159B00790B7E007F071206057FC012193F900062
:1015AB0048E06F60147B017A00794912146F75A0C3
:1015BB00FE900048E0FF02187F7BFF7A11798B12B7
:0215CB00088A8C
:0115CD0022FB
:10184B00E4FEEF30E004D2B68002C2B6D2B5C2B528
:09185B00EFC313FF0EEEB408E91F
:011864002261
:1017F500E4FFFEEEC313FE30B6054480FE8004EE22
:0E180500547FFED2B5C2B50FEFB408E7AF06B0
:0118130022B2
:10191200C2B7C2B5D2B7EF54FEFF12184BAF0512D1
:07192200184BD2B5C2B72239
:10193F00C2B7C2B5D2B7EF4401FF12184B1217F559
:04194F00D2B5C2B794
:011953002271
:0B146F00900050EBF0A3EAF0A3E9F0BE
:10147A00E4FCA3748CF0E4FD7F8E1219127D807F48
:10148A0080121912900053E0FF900050E0FBA3E095
:10149A00FAA3E0F98C82758300120644FD12191230
:1014AA00900053E024FEF00CECB407D87D807F8EC8
:0314BA0002191202
:10166C00E4FD9000CAEBF0A3EAF0A3E9F07C8CAFA8
:10167C000412193F9000CAE0FBA3E0FAA3E0F98D35
:0F168C0082758300EF1206831C1C0DEDB407E07E
:01169B00222C
:10187F00AC07E4FD7F8E121912AF04AD077FC012C3
:09188F0019127D807F8E021912EE
:100E020078AA7C007D017BFF7A1279127E007F072F
:100E1200120605E49000B1F0900047E024FE605411
:100E2200147003020EDA240270EEE4900047F09090
:100E32000046E0B407E2E49000B1F0900046E0FF23
:100E42009000B1E0C39F501A1213A19000B1E024A8
:100E5200AAF582E43400F583EFF09000B1E004F0EB
:100E620080D97B017A0079AA12146F7BFF7A1179FB
:100E7200A0020F10E4900047F07B017A0079AA12D9
:100E8200166C7BFF7A1179C19000AAE0FF900053A3
:100E9200E4F0A3EFF09000ACE0FF900055E4F0A383
:100EA200EFF09000ADE0FF900057E4F0A3EFF09078
:100EB20000AEE0FF900059E4F0A3EFF09000AFE045
:100EC200FF90005BE4F0A3EFF09000B0E0FF900031
:100ED2005DE4F0A3EFF08036E4900047F09000B1BB
:100EE200F0900046E0FF9000B1E0C39F500B121358
:100EF200A19000B1E004F080E8900046E070047F29
:100F02000180027F00EF600C7BFF7A1179E3120807
:100F12008A020E1A7BFF7A1179EF12088A020E1AE0
:10172800E49000D4F0C2C07FF47E0112199CD2C0AC
:101738007F327E0012199CA2C0E4339000D4F07F5F
:0C174800C27E0112199C30C002C322D3E3
:011754002272
:1014BD00E49000CDF0A3F09000CDF09000CEE0C30D
:1014CD0013F0C2C07F047E0012199CD2C07F0A7E29
:1014DD000012199C30C0079000CEE04480F07F3C94
:1014ED007E0012199C9000CDE004F0E0C3940840FA
:0614FD00CA9000CEE0FFE2
:0115030022C5
:051608009000CFEFF09F
:10160D00E4A3F0F0C2C07F047E0012199C9000CFBD
:10161D00E01392C07F327E0012199CD2C09000CF91
:0E162D00E0C313F0A3E004F0E0C3940840D63D
:01163B00228C
:10132B001217287FCC1216087F441216087F0A7EEC
:10133B000012199C1217287FCC1216087FBE1216AA
:10134B00081214BD9000BFEFF01214BD9000BEEF59
:10135B00F0E49000C0F0A3F01214BD9000C1E004C3
:10136B00F070069000C0E004F0C39000C1E0940759
:10137B009000C0E0940040E09000BEE0FEA3E0FDD2
:10138B00EDFFAC06E4120131E4FBFA7920783F1251
:05139B00002612016AAA
:0113A000222A
:0E178500C10BC10CC1094100A9FF4100830046
:10101200E4FFC2AA90008004F0A37400F0A374A5B8
:10102200F0E4FEE4FD74842FF582E43400F583E0FD
:10103200FCD39404402AEC94095025900080E0FBF4
:10104200A3E0FAA3E0F912062BC313120671900073
:1010520080E0FBA3E0FAA3E0F912062B547F80396B
:1010620074842FF582E43400F583E0FCD3940B40C2
:101072002BEC94105026900080E0FBA3E0FAA3E052
:10108200F912062BC313120671900080E0FBA3E055
:10109200FAA3E0F912062B44801206710F0DED64DB
:1010A200087082900081E475F0011206A50EEE64CC
:1010B2000460030210259000A7E0FFFDA3E02DFDD0
:1010C200E433FCEDF44C7007A3EFF0D20A800690F3
:0710D20000A974FFF0D2AA8F
:0110D90022F4
:030013000212A531
:0D12A500C0E0C0F0C083C082C0D075D0088A
:1012B200D28E9000B2E09000B9F09000B2E4F0302B
:1012C2000B10C20B900083F09000B2F0C20CC20966
:1012D200804CA209720C50289000B9E0FF90008364
:1012E200E0FE04F074842EF582E43400F583EFF01E
:1012F200900083E0B42009E4F0C20CC28E121012F6
:101302009000B9E0FFD394354007D20C900083E4FB
:0E131200F0EFD394724007D209900083E4F00C
:0B132000D0D0D082D083D0F0D0E032DB
:101793004100B3C44100B5004200B700004100B4AA
:0517A300004100B6004A
:10181400538E7F5389F04389019000B5E0F58A9097
:0C18240000B3E0F58CC28DD2A9D28C225A
:03000B000217AB2E
:1017AB00C0E0C083C0829000B5E0F58A9000B3E042
:1017BB00F58C9000B8E004F070069000B7E004F0F0
:0717CB00D082D083D0E03290
:10189800538EBF53890F4389209000B6E0F58B859E
:0918A8008B8DC28FD2ABC28E22DF
:03001B000217D2F7
:1017D200C0E0C083C082C0D075D0109000B2E0FFDC
:1017E20004F0EFD394FA4002D20BD0D0D082D0834F
:0317F200D0E03212
:100CA200FBFFDBEFDBEDDBDE80013BBFBB7DFBFD52
:100CB200FBFB0037FBCFBBD7CBBBFA7DFBE0FFFFD3
:100CC200FEFFD97DCB7BD376DB6EDB1EC84DB355E1
:100CD200BB5BBB5BB3558B4D3B7EBAFEF9FEFFFFA0
:100CE200FF7FFEFFF9FFE0001FFFFDF7FBCFE73FAD
:100CF2000FFDEFFEEC01EFFFEF7FEB9FE7E7FFFF5A
:100D0200DFF7D82D5BBE9B81DBBFD82FDFF6FBF967
:100D1200FBC7003FFBFFB803CBFDFBFDFBF1FFFF71
:100D2200F7FDF7BBF05707EFF797F079FFFFFEFFEC
:100D3200BEFDBEFEB801B6FFAEFF9EFFFEFFFFFF87
:100D4200FF7FFEFFF9FFE00017FFEFADC1AD2D5BA6
:100D5200ACB5A96EA5818DDFEDA7E17BFFFDFFFF9D
:100D6200FF7FFEFFF9FFE0001FFFFDF7FBCFE73F2C
:100D72000FFDEFFEEC01EFFFEF7FEB9FE7E7FFFFD9
:100D8200FFFEFFFDFFF3FF8F007FFFBEFFCDFFFBE6
:100D9200FFE7FF1F00FFFF1FFFE7FFF9FFFEFFFF57
:100DA200FEFBFEFBEEF7EEEFEEDFEEBFEE7F0000A6
:100DB200EE7FEEBFEEDFEEEFEEF7FEFBFEFBFFFF98
:100DC200FDFFFDFEBDFDCC03FFFDFBFABBE6B81E39
:100DD200BBFEBBFEB806BBFABBFAFBC2FFFEFFFFBF
:100DE200DFFFDF80DFBFD0BFDEB7D4A35A979A37C9
:100DF200DAB7D4A7DEB3D0BDDFBEDF81DFFFFFFFEE
:0217A800C10D71
:10197D00EFD39400400B7EA57D04DDFEDEFA1F80C3
:01198D00EF6A
:01198E002236
:03000300020006F2
:03000600D20D32E6
:1010DA00E49000C2F0A3F0A3F0A3F075A0FF300DD6
:1010EA00FDC20D9000C4E475F0011206A5FED3E519
:1010FA00F09420EE94034007E49000C4F0A3F0902B
:10110A0000C4E0FFA3E09000C2CFF0A3EFF090008C
:10111A00C5E024A0FF9000C4E03400FE9000C2E0C5
:10112A00FCA3E0FDC39FEC9E50B4ED25E0FFEC3339
:10113A00FE74A22FF582740C3EF583E493FF121815
:10114A00FA9000C3E025E0FF9000C2E033FE74A3EA
:10115A002FF582740C3EF583E493FF1218E2C290D5
:10116A00C2947F0112197DD290D294300D030210DD
:10117A00E89000C3E004F070959000C2E004F080AB
:01118A008DD7
:0D198F00E4F5C7F5C5F5C675C380F5C422A3
:1018650075C78275C5018FC4EEF5C375C65A75C6B1
:09187500A500AFC27E0012198F1C
:01187E002247
:10169C009000D1EEF0A3EFF0ED1DAE0470011C4EE6
:1016AC00601D9000D1E475F0011206BBAFF0FE1284
:1016BC001865EF120671740129F9E43AFA80D922FF
:1018B10075C78275C5028FC4EEF5C3AF058FC275BA
:0918C100C65A75C6A50002198F74
:1015CE009000C6EEF0A3EFF0A3ECF0A3EDF09000C8
:1015DE00C874FFF5F01206BB45F0601D9000C6E41E
:1015EE0075F0011206BBAFF0FE12062BFD1218B1FC
:0A15FE00740129F9E43AFA80D522BD
:1019540075C78275C5038FC4EEF5C375C65A75C6BF
:05196400A50002198F2F
:10002600EC4D6011E8497017ED33EC3304600DE4D4
:10003600FCFFFEFD22E933E8330470F80201D61214
:1000460001A158046009E4CC248150062850090215
:1000560001E02840030201DDC0E0EB4A7044B980AC
:1000660006D0E0FB0201CCEF4E701CBD8008EBFF12
:10007600EAFEE9FD80EBE98DF0A4FEE5F002010F52
:10008600E9CDF9EAFEEBFFEF89F0A4FCE5F0CE89B5
:10009600F0A42EFFE435F0CD89F0A42DFEE435F072
:1000A6008067EF4E7005BD80D780C3EF8BF0A4ACA0
:1000B600F0EE8BF0A42CFCE435F0F8EF8AF0A42CDB
:1000C600E5F038FCE433CB8DF0A42CFCE5F03BF8EE
:1000D600EE8AF0A42CFCE5F038F8E433CF89F0A4DE
:1000E6002CFCE5F038CF3400CE89F0A42FFFE5F0E4
:1000F6003EFEE433C98DF0A42EFEE5F039CD8AF03C
:10010600A42FFFE5F03EFEE43DFD33D0E0FB5007B3
:100116000BBB000F0201E0EC2CFCEF33FFEE33FECD
:06012600ED33FD0201B8FB
:10012C0075F020800E75F010800575F0087D007E4E
:10013C00007F003392D530D5031206D1EC3340103A
:10014C00EF33FFEE33FEED33FDEC33FCD5F0ED2257
:0E015C00E5F0247EA2D513CC92E7CDCEFF2293
:10016A00EDD2E7CD33EC3392D524814006E4FFFE8D
:10017A00FDFC22FCE4CFCECDCC24E0501174FF80EC
:10018A00EDC3CC13CCCD13CDCE13CECF13CF047089
:07019A00F030D5DE0206D1B2
:10081F00E5182453F582E43400F583E0051822909F
:10082F000050300703900053E475F0011206DF0209
:10083F00062B2000E97F2ED2008018EF540F249052
:10084F00D43440D4FF30040BEF24BFB41A0050034C
:10085F002461FFE51960021519051CE51C700205DE
:10086F001B30070E900050E475F0011206DFEF0207
:10087F0006710219BA7403D2078003E4C207F51890
:10088F009000501206F6E4F519F51BF51CE51960FA
:10089F00077F2012086280F5751AFFC201C200C2DD
:1008AF0002C203C205C206C20812082EFF700D3025
:1008BF0007057F00120873AF1CAE1B22B4255FC261
:1008CF00D5C20412082EFF24D0B40A00501A75F0B6
:1008DF000A781930D50508B6FF0106C6A426F620FA
:1008EF00D5047002D20380D924CFB41A00EF50047C
:1008FF00C2E5D204020B65D20180C6D20080C0D2FD
:10090F000280BCD2D580BAD20580B47F2012086293
:10091F002002077401B5190040F112081FFF1208D9
:10092F006202089CD208D206809512081FFB12089B
:10093F001FFA12081FF94A4B700679637A0C7BFF76
:10094F0020022EE519602A7E008E82758300120622
:10095F004460060EEE651A70F0C2D5EBC0E0EAC037
:10096F00E0E9C0E0EE120BC6D0E0F9D0E0FAD0E03B
:10097F00FB12062BFF60AAEBC0E0EAC0E0E9C0E083
:10098F00120862D0E02401F9D0E03400FAD0E0FB85
:10099F00E51A0460DCD51AD98087D20280A2120B27
:1009AF00A860F7E51A7001041201EBA91A600DE5B2
:1009BF001A600914F51A120C50EF60F3EA30E702CF
:1009CF00F404C3995079EAF4251A0430E701E404DA
:1009DF00F51A800D120BA860C1EA051A251A12012B
:1009EF00EBEA90007FF030E701E4251A04D51A04F2
:1009FF0020050114120BC6E4C0E0120C5090007FCA
:100A0F00E0601320E70714F012084A802204F0D0A8
:100A1F00E014C0E07F0012084AE51A60071208418F
:100A2F00151A800B300503120841D0E002089CD044
:100A3F00E00480C4120BA8609EE51A041201EB902B
:100A4F00007FEAF0E51A2005026001042404120B6E
:010A5F00C6D0
:100A600074FF04C0E0120C5012084AE51A20050277
:100A70006003120841D0E0B51AE87F45120854908F
:100A8000007FE07F2B30E7047F2DF404C0E01208E4
:100A900062D0E075F00A84C0F012084BD0E0120872
:100AA0004B02089C791080027908C206C2088008AF
:100AB000D2D5790A8004790AC2D5E51A047002F504
:100AC0001AE4FAFDFEFF12081FFC7B082001131236
:100AD000081FFD7B1030000A12081FFE12081FFFBE
:100AE0007B20EC3382D592D55013C3E43000069FAF
:100AF000FFE49EFEE42001039DFDE49CFCE4CBF8B2
:100B0000C201EC700CCFCECDCCE824F8F870F380A5
:100B100017C3EF33FFEE33FEED33FDEC33FCEB3365
:100B2000FB994002FB0FD8E9EB300105F8D0E0C497
:100B300048B201C0E00AEC4D4E4F78207B0070C2F5
:100B4000EAB51A0040BCC0E0120BC8D0F0D0E020DB
:100B50000104C4C0E0C4B201C0F012084BD0F0D50B
:100B6000F0EB02089C1206FF0939530AA458090A3F
:100B70004C0906420AA84F0AB0440AB049091F436B
:100B80000AB65509E3460A434509AD470C835009A7
:100B90000E2D09122E09352B0916230933200C6C52
:100BA0002A08CE480000092DE51AB4FF03751A067D
:100BB00012081FFC12081FFD12081FFE12081FFF5B
:100BC000900078020228790AA2D520031430050982
:100BD000B910020404B9080104A2D520060250018C
:100BE000042002689202B519005034C0E07F203022
:100BF00003197F30A20272067205500F120C1FC239
:100C000002C206C205C2087F30800F300503E9C06A
:100C1000E0120862300503D0E0F9D0E0B519CC301D
:100C200005177F30B9100C1208627F583004077F17
:100C3000788003B908031208623002057F2D02088C
:100C4000627F202008F87F2B2006F322920280CFBB
:100C50007F00B40700500B2478F582E43400F5835C
:100C6000E0FF22286E756C6C2900D20112081F303B
:100C700001F8C201781930D50108F60208CE2D50CE
:100C800043495812081F2403B405004001E4900CA6
:100C90007E93120853743A120853D2037519040252
:020CA0000AA4A4
:1001A100E9D2E7C933E833F892D5EDD2E7CD33ECA4
:0701B10033FC5002B2D5221D
:1001B800EC30E7100FBF000C0EBE00080DBD0004A8
:1001C8000BEB6014A2D5EB13FCED92E7FD2274FF54
:1001D800FCFDFEFF22E480F8A2D574FF13FC7D80AD
:0301E800E480EFC1
:1001EB00F920E73624F950037907E4F42402FBE500
:1001FB0082158270021583DBF6E024FB501BE9604D
:10020B0014E4F0E582158270021583E004F0B40A61
:0D021B0008E4F0D9EE7401F00A22C2D522E9
:10022800ED33EC3392D5FA602AB4FF33EDC2E77BA5
:10023800FF60067A02794DE4227A02795620D504C5
:100248007A027951224E614E002B494E46002D49C3
:100258004E4600E47A08F0A3DAFC7B00740722C05B
:1002680083C082ECC0E0EDC0E0EEC0E0EFC0E0EAA1
:1002780075F010A4CAABF075F04DA42BFBE435F073
:10028800FCEA2410FAEB34C5FBEC34D9FCEDC2E7E8
:10029800FF75F056A4F42411C5F0F434C58FF0A40A
:1002A8002AE5F03BE43CF020E7141204F5D0E0FF27
:1002B800D0E0FED0E0FDD0E0FC1204288014F40465
:1002C8001204F5D0E0FFD0E0FED0E0FDD0E0FC1253
:1002D8000026D082D083E0FAEDD2E7CD33EC332488
:1002E80082FBE4C3CF33CFCE33CECD33CD33DBF374
:1002F8007B0775F00A846004F0A31B0AE5F0F0A3FD
:100308008FF0740AA4FFACF08EF0740AA42CFEAC33
:10031800F050010C8DF0740AA42CFDE435F0F0A324
:05032800DBDE7407227A
:10032D000201D6E86480F8E933E83360110460F027
:10033D00ED33EC337009E8FCE9FDEAFEEBFF220436
:10034D0060DED3EB9FEA9EE99DE8C2E78CF0C2F731
:10035D0095F0400CE8CCF8E9CDF9EACEFAEBCFFBFD
:10036D001201A185D0F05804700320D5B3E80470B4
:10037D00075002B2D50201E092D5EC0460F7E4CC4F
:10038D00C0E0C398F8603B94186008400DD0E0FBC6
:10039D000201B8E4FBFAC9FC8028E830E406E4C9A0
:1003AD00FBE4CAFCE830E305E4C9CACBFCE854071A
:1003BD006010F8C3E913F9EA13FAEB13FBEC13FC25
:1003CD00D8F130F52FC3E49CFCEF9BFFEE9AFEEDC8
:1003DD0099FDD0E0FBEF4E4D4C701222DB03020174
:1003ED00DDEC2CFCEF33FFEE33FEED33FDED30E7AE
:1003FD00EB0201B8EF2BFFEE3AFEED39FDD0E0FB3D
:10040D0050130BBB00030201E0ED13FDEE13FEEFE5
:08041D0013FFEC13FC0201B80F
:100425000201E0EC5D046005E8590470030201D6A1
:100435001201A1580460F6EC4860F2EC7004FDFE70
:10044500FF22C860DB2481C85009C39860025006AA
:100455000201DD9850CAF582E9294B4A7005AB8245
:100465000201CC75F0007C1A7880C3EF9BEE9AED03
:1004750099400DC3EF9BFFEE9AFEED99FDE842F022
:10048500DC23ACF0D0E0FFD0E0FED0E0FDAB822075
:10049500E7101BEB60BAEC2CFCEF33FFEE33FEEDFF
:1004A50033FD0201B8E803F830E705C0F075F00048
:1004B500EF2FFFEE33FEED33FD40B830E7C280AAE3
:1004C5003F8000004120000042C80000447A00003F
:1004D500461C400047C35000497424004B189680C1
:1004E5004CBEBC205A0E1BCA6753C21C749DC5AEB8
:1004F500FB60065407601C2323120523EB54386068
:100505000912050F12051E120026ECF8EDF9EEFA98
:10051500EFCB22EB12051E80F1543803241C900406
:10052500C5FE93FC0EEE93FD0EEE930ECE93FF22C9
:03000000021219D0
:0C121900787FE4F6D8FD75812102126098
:10053500E709F608DFFA8046E709F208DFFA803EA8
:1005450088828C83E709F0A3DFFA8032E309F60895
:10055500DFFA8078E309F208DFFA807088828C83FD
:10056500E309F0A3DFFA806489828A83E0A3F608B1
:10057500DFFA805889828A83E0A3F208DFFA804C8B
:1005850080D280FA80C680D4806980F28033801062
:1005950080A680EA809A80A880DA80E280CA8033CB
:1005A50089828A83ECFAE493A3C8C582C8CCC58343
:1005B500CCF0A3C8C582C8CCC583CCDFE9DEE78013
:1005C5000D89828A83E493A3F608DFF9ECFAA9F092
:1005D500EDFB2289828A83ECFAE0A3C8C582C8CCE8
:1005E500C583CCF0A3C8C582C8CCC583CCDFEADE01
:1005F500E880DB89828A83E493A3F208DFF980CC63
:1006050088F0EF60010E4E60C388F0ED2402B4045B
:100615000050B9F582EB2402B4040050AF23234502
:060625008223900585739D
:10062B00BB010689828A83E0225002E722BBFE02CD
:09063B00E32289828A83E4932200
:10064400BB010CE58229F582E5833AF583E022506B
:1006540006E92582F8E622BBFE06E92582F8E222B5
:0D066400E58229F582E5833AF583E49322CF
:10067100BB010689828A83F0225002F722BBFE0168
:02068100F32262
:10068300F8BB010DE58229F582E5833AF583E8F0AD
:10069300225006E92582C8F622BBFE05E92582C859
:0206A300F22241
:1006A500C5F0F8A3E028F0C5F0F8E58215827002E0
:0606B5001583E038F0227D
:1006BB00A3F8E0C5F025F0F0E582158270021583F2
:0606CB00E0C838F0E8224F
:10150400C2D5E830E70FB2D5E4C39BFBE49AFAE412
:1015140099F9E498F8EC30E717B2D512153A1207A6
:101524008DE4C39BFBE49AFAE499F9E498F8800308
:1015340012078D30D50DE4C39FFFE49EFEE49DFDAC
:04154400E49CFC2205
:0E06D100C3E49FFFE49EFEE49DFDE49CFC223A
:1006DF00F8E0FBA3A3E0F925F0F0E58215827002A4
:0706EF001583E0FA38F02248
:0906F600EBF0A3EAF0A3E9F02205
:1006FF00D083D082F8E4937012740193700DA3A38A
:10070F0093F8740193F5828883E47374029368609D
:06071F00EFA3A3A380DF9D
:10072500EF4E6012EF60010EEDBB010B89828A83EB
:10073500F0A3DFFCDEFA2289F05007F709DFFCA9F8
:0C074500F022BBFEFCF309DFFCA9F0224F
:10122500021929E493A3F8E493A34003F68001F29D
:1012350008DFF48029E493A3F85407240CC8C333CA
:10124500C4540F4420C8834004F456800146F6DF99
:10125500E4800B0102040810204080901781E47E91
:10126500019360BCA3FF543F30E509541FFEE4938E
:10127500A360010ECF54C025E060A840B8E493A355
:10128500FAE493A3F8E493A3C8C582C8CAC583CA80
:10129500F0A3C8C582C8CAC583CADFE9DEE780BE38
:0117AA00003E
:1007510075F008758200EF2FFFEE33FECD33CDCC5F
:1007610033CCC58233C5829BED9AEC99E5829840E2
:100771000CF582EE9BFEED9AFDEC99FC0FD5F0D6BF
:10078100E4CEFBE4CDFAE4CCF9A88222B800C1B9E9
:100791000059BA002DEC8BF084CFCECDFCE5F0CB27
:1007A100F97818EF2FFFEE33FEED33FDEC33FCEB60
:1007B10033FB10D703994004EB99FB0FD8E5E4F91B
:1007C100FA227818EF2FFFEE33FEED33FDEC33FC08
:1007D100C933C910D7059BE99A4007EC9BFCE99AFC
:1007E100F90FD8E0E4C9FAE4CCFB2275F010EF2F41
:1007F100FFEE33FEED33FDCC33CCC833C810D70741
:100801009BEC9AE899400AED9BFDEC9AFCE899F87B
:0E0811000FD5F0DAE4CDFBE4CCFAE4C8F9220E
:00000001FF
