:10188D007B017A007900121528121A3A12190F12DB
:10189D001979121723D290D294D2B4C291C295C2A3
:0418AD00C3D2AF22D1
:1018B100E490004BF0A3F012188DC28390009AE0DF
:1018C1007004A3E0643270F490009AF0A3F080EC0D
:0B000E00EF1FAC0670011E4C70F622C4
:0A1A150000007F127EEADEFEDFFC17
:011A1F0022A4
:061A330000007F01DFFE50
:011A3900228A
:1019EE00AD07AC06ED1DAE0470011C4E6005121A5B
:0419FE001580F1223D
:0B1A2000EF1FAC0670011E4C70F62298
:10180A00546865204D736720517565756520697345
:10181A0020456D7074792C63616E27742067657436
:0F182A00206F75742066726F6D2069740D0A004F
:0418D100410047008B
:1015280090004DEBF0A3EAF0A3E9F090004DE0FB4A
:10153800A3E0FAA3E02406F9E43AFAC003C002C023
:101548000190004DA3E0FAA3E0F912075E90004D68
:10155800E0FBA3E0FAA3E02406F9E43AFAC003C0EA
:1015680002C00190004DA3E0FAA3E0F99000031235
:10157800080F7E007F407D0090004DE0FBA3E0FA5D
:10158800A3E02406F9E43AFA12088E90004DE0FB35
:0D159800A3E0FAA3E0F9900046E40206B6D5
:10136700900048EBF0A3EAF0A3E9F0900048E0FB17
:10137700A3E0FAA3E0F9900046120644C394404064
:10138700047F0180027F00EF60037F0022AF05E446
:1013970075F00112073CEF1206A4900048E0FBA38A
:1013A700E0FAA3E02446F9E43AFAC003C002C00118
:1013B700900048A3E0FAA3E0F912071CD082D0837B
:1013C700D0E06B7008E965827003EA65837022904C
:1013D7000048E0FBA3E0FAA3E02406F9E43AFAC0E8
:1013E70003C002C001900048A3E0FAA3E0F9120786
:1013F7005E900048E0FBA3E0FAA3E0F99000467492
:07140700011206717F0122B2
:0B11E40090009EEBF0A3EAF0A3E9F0FE
:1011EF00E4A3F090009EE0FBA3E0FAA3E0F99000E7
:1011FF004612064470047F0180027F00EF600C7B73
:10120F00FF7A18790A12097E0212A890009EE0FB5D
:10121F00A3E0FAA3E0F9900003E475F0011207DDF3
:10122F0012062B9000A1F090009EE0FBA3E0FAA322
:10123F00E0F99000031207ADC003C002C001900097
:10124F009EE0FBA3E0FAA3E02446F9E43AFAD08249
:10125F00D083D0E06B7008E965827003EA65837014
:10126F002590009EE0FBA3E0FAA3E02406F9E43A00
:10127F00FAC003C002C00190009EA3E0FAA3E0F9F8
:10128F0090000312080F90009EE0FBA3E0FAA3E08A
:0E129F00F990004674FF1206719000A1E0FF66
:0112AD00221E
:071A3A00E4F598538EDF2252
:080003008F993099FDC299228A
:101A020012062BFF600C120003740129F9E43AFA62
:031A120080EE2241
:0300230002161BA7
:10161B00C0E0C0F0C083C082C0D075D000C000C095
:0B162B0001C002C003C005C006C007DC
:1016360030983AC298AE99EEB4FA08900047740111
:10164600F0802CEEB4FF089000477402F08020EE84
:10165600B4FB089000477403F080147B017A00798C
:0F16660000AD06121367AF061200038002C2998F
:10167500D007D006D005D003D002D001D000D0D0FD
:09168500D082D083D0F0D0E03215
:061A4100AE0712000322B3
:081A2B00120003D2C3C2C32262
:10199200E4FEC297EF139296EFC313FFD2970EEEB7
:0719A200B408EFD295C295D5
:0119A900221B
:1019AA00E4FEC293EF139292EFC313FFD2930EEEAB
:0719BA00B408EFD291C291C5
:0119C1002203
:10192B00E4FEFDEE25E0FEEF30E004EE4401FEEFB9
:0A193B00C313FF0DEDB408EBAF0677
:01194500227F
:061A470012192B8FA022F2
:081022009000A2EEF0A3EFF034
:10102A00A374FEF0E4A3F0E49000A5F09000A4E01D
:10103A00FF121A47E0FF780108800123D8FD9000CB
:10104A00A4F09000A2E0FEA3E0FF1219EE9000A522
:10105A00E004F0E0C3940840D37FFF121A47E490FB
:10106A0000A5F09000A4E0FF121A2B9000A4E0FF64
:10107A00780108800123D8FD9000A4F0C2B4900042
:10108A00A2E0FEA3E0FF1219EED2B49000A5E0049C
:10109A00F0E0C3940840CCE49000A5F09000A4E0EE
:1010AA00FF121992E0FF780108800123D8FD900011
:1010BA00A4F0C2949000A2E0FEA3E0FF1219EED2BF
:1010CA00949000A5E004F0E0C3940840CFE49000B7
:1010DA00A5F09000A5E0C3940840030210319000E7
:1010EA00A4E0FF1219AAE0FF780108800123D8FDC5
:1010FA009000A4F0C2909000A2E0FEA3E0FF1219B3
:0B110A00EED2909000A5E004F080C73A
:10140E004453313330322069732072756E6E696EBB
:10141E0067210D0A0057726974652054696D652045
:10142E00746F2044533133303220737563636573A8
:10143E007365640D0A003230253032782D25303236
:10144E00782D2530327820253032783A2530327892
:10145E003A253032780D0A00636C656172204D7347
:10146E00670D0A004920646F6E2774206B6E6F77CC
:10147E0020776861742069732077726F6E67210020
:0E148E001603091409290000000000000000E8
:1017230090004D74AAF0784E7C007D017BFF7A1403
:10173300798E7E007F071206057FC01219D99000AB
:101743004DE06F60147B017A00794E12168E75A0FE
:10175300FE90004DE0FF0219607BFF7A14790E12B0
:02176300097EFD
:011765002261
:10194600E4FEEF30E004D2B68002C2B6D2B5C2B52C
:09195600EFC313FF0EEEB408E923
:01195F002265
:1018F000E4FFFEEEC313FE30B6054480FE8004EE26
:0E190000547FFED2B5C2B50FEFB408E7AF06B4
:01190E0022B6
:1019C200C2B7C2B5D2B7EF54FEFF121946AF051225
:0719D2001946D2B5C2B7228D
:1019D900C2B7C2B5D2B7EF4401FF1219461218F0C7
:0419E900D2B5C2B7FA
:0119ED0022D7
:0B168E00900055EBF0A3EAF0A3E9F098
:10169900E4FCA3748CF0E4FD7F8E1219C27D807F77
:1016A900801219C2900058E0FF900055E0FBA3E0BA
:1016B900FAA3E0F98C82758300120644FD1219C25F
:1016C900900058E024FEF00CECB407D87D807F8EA2
:0316D9000219C231
:1017DA00E4FD9000B2EBF0A3EAF0A3E9F07C8CAF51
:1017EA00041219D99000B2E0FBA3E0FAA3E0F98D44
:0F17FA0082758300EF1206B61C1C0DEDB407E0DC
:0118090022BC
:10196000AC07E4FD7F8E1219C2AF04AD077FC01231
:0919700019C27D807F8E0219C2AC
:100EF600788E7C007D017BFF7A1479957E007F07D2
:100F0600120605E4900095F0900047E024FE605A32
:100F1600147003020FD4240270EEE4900047F090A0
:100F26000046E0B407E2E4900095F0900046E0FF4A
:100F3600900095E0C39F50207B017A007900121142
:100F4600E4900095E0248EF582E43400F583EFF01A
:100F5600900095E004F080D37B017A00798E12161A
:100F66008E7BFF7A147923021010E4900047F07B01
:100F7600017A00798E1217DA7BFF7A147944900091
:100F86008EE0FF900058E4F0A3EFF0900090E0FFB1
:100F960090005AE4F0A3EFF0900091E0FF90005C1F
:100FA600E4F0A3EFF0900092E0FF90005EE4F0A37F
:100FB600EFF0900093E0FF900060E4F0A3EFF09074
:100FC6000094E0FF900062E4F0A3EFF0803CE49030
:100FD6000047F0900095F0900046E0FF900095E005
:100FE600C39F50117B017A0079001211E49000959D
:100FF600E004F080E2900046E070047F0180027F0A
:1010060000EF600C7BFF7A14796612097E020F0EE0
:0C1016007BFF7A14797212097E020F0E23
:10183900E49000B9F0C2C07FF47E0112000ED2C05C
:101849007F327E0012000EA2C0E4339000B9F07F0F
:0C185900C27E0112000E30C002C322D378
:011865002260
:1016DC00E49000B5F0A3F09000B5F09000B6E0C334
:1016EC0013F0C2C07F047E0012000ED2C07F0A7EAF
:1016FC000012000E30C0079000B6E04480F07F3C32
:10170C007E0012000E9000B5E004F0E0C394084097
:06171C00CA9000B6E0FFD8
:0117220022A4
:0517A6009000B7EFF018
:1017AB00E4A3F0F0C2C07F047E0012000E9000B7DD
:1017BB00E01392C07F327E0012000ED2C09000B7B1
:0E17CB00E0C313F0A3E004F0E0C3940840D69E
:0117D90022ED
:1015A5001218397FCC1217A67F441217A67F0A7E20
:1015B5000012000E1218397FCC1217A67FBE121723
:1015C500A61216DC9000A7EFF01216DC9000A6EF2D
:1015D500F0E49000A8F0A3F01216DC9000A9E00456
:1015E500F070069000A8E004F0C39000A9E094070D
:1015F5009000A8E0940040E09000A6E0FEA3E0FD86
:10160500EDFFAC06E4120131E4FBFA7920783F12D4
:05161500002612016A2D
:01161A0022AD
:04001E0000000000DE
:0100190022C4
:10111500E4900087F0A3F0A3F0788A7C007D017B42
:10112500FF7A00791EFE7F04120605E4900085F023
:101135007F907E01121A2030B3037FFF2290008535
:10114500E004F0E0C3941340E730B3FDE49000857C
:10115500F07FF47E01121A2020B3037FFF22900056
:1011650085E004F0E0C3940540E720B3FDE490007A
:1011750085F0E4900086F030B3FD30B3167F647ED1
:1011850000121A20900087E004F0E0C3941640EAAC
:101195007FFF22900088E0C313F0900087E0C3949E
:1011A500084005A3E04480F0E4900087F0900086B5
:1011B500E004F0E0C3940840BE900088E0FF900092
:1011C50085E0248AF582E43400F583EFF09000850C
:0E11D500E004F0E0C394044099900089E0FF2C
:0111E30022E9
:100D9600FBFFDBEFDBEDDBDE80013BBFBB7DFBFD5D
:100DA600FBFB0037FBCFBBD7CBBBFA7DFBE0FFFFDE
:100DB600FEFFD97DCB7BD376DB6EDB1EC84DB355EC
:100DC600BB5BBB5BB3558B4D3B7EBAFEF9FEFFFFAB
:100DD600FF7FFEFFF9FFE0001FFFFDF7FBCFE73FB8
:100DE6000FFDEFFEEC01EFFFEF7FEB9FE7E7FFFF65
:100DF600DFF7D82D5BBE9B81DBBFD82FDFF6FBF973
:100E0600FBC7003FFBFFB803CBFDFBFDFBF1FFFF7C
:100E1600F7FDF7BBF05707EFF797F079FFFFFEFFF7
:100E2600BEFDBEFEB801B6FFAEFF9EFFFEFFFFFF92
:100E3600FF7FFEFFF9FFE00017FFEFADC1AD2D5BB1
:100E4600ACB5A96EA5818DDFEDA7E17BFFFDFFFFA8
:100E5600FF7FFEFFF9FFE0001FFFFDF7FBCFE73F37
:100E66000FFDEFFEEC01EFFFEF7FEB9FE7E7FFFFE4
:100E7600FFFEFFFDFFF3FF8F007FFFBEFFCDFFFBF1
:100E8600FFE7FF1F00FFFF1FFFE7FFF9FFFEFFFF62
:100E9600FEFBFEFBEEF7EEEFEEDFEEBFEE7F0000B1
:100EA600EE7FEEBFEEDFEEEFEEF7FEFBFEFBFFFFA3
:100EB600FDFFFDFEBDFDCC03FFFDFBFABBE6B81E44
:100EC600BBFEBBFEB806BBFABBFAFBC2FFFEFFFFCA
:100ED600DFFFDF80DFBFD0BFDEB7D4A35A979A37D4
:100EE600DAB7D4A7DEB3D0BDDFBEDF81DFFFFFFFF9
:1012AE00E49000AEF0A3F0A3F0A3F075A0FF20B27F
:1012BE00FD9000B1E004F070069000B0E004F0D3B1
:1012CE009000B1E094A09000B0E094004004E4F0EF
:1012DE00A3F09000B0E0FFA3E09000AECFF0A3EF3C
:1012EE00F09000B1E024A0FF9000B0E03400FE903A
:1012FE0000AEE0FCA3E0FDC39FEC9E50B1ED25E0F7
:10130E00FFEC33FE74962FF582740D3EF583E49355
:10131E00FF1219AA9000AFE025E0FF9000AEE03377
:10132E00FE74972FF582740D3EF583E493FF121928
:10133E00927FFF121A2BC290C294C2B47FAA7E0073
:10134E00121A20D290D294D2B49000AFE004F07072
:09135E00909000AEE004F08088DC
:1018D500410096C44100980042009A0000410097DB
:0A18E500664100996642009C000075
:10190F00538E7F5389F0438901900098E0F58A90B8
:0C191F000096E0F58CC28DD2A9D28C227B
:03000B0002186672
:10186600C0E0C083C082900098E0F58A900096E0C0
:10187600F58C90009BE004F0700690009AE004F06E
:07188600D082D083D0E032D4
:10197900538EBF53890F438920900099E0F58B85D9
:091989008B8DC28FD2ABD28E22ED
:03001B0002176663
:10176600C0E0C0F0C083C082C0D075D000C000C049
:1017760006C00790009CE475F0011206D8AFF0FE93
:10178600BE130CBF880990009CE4F0A3F0B283D08E
:1017960007D006D000D0D0D082D083D0F0D0E032AF
:10002600EC4D6011E8497017ED33EC3304600DE4D4
:10003600FCFFFEFD22E933E8330470F80201D61214
:1000460001A158046009E4CC248150062850090215
:1000560001E02840030201DDC0E0EB4A7044B980AC
:1000660006D0E0FB0201CCEF4E701CBD8008EBFF12
:10007600EAFEE9FD80EBE98DF0A4FEE5F002010F52
:10008600E9CDF9EAFEEBFFEF89F0A4FCE5F0CE89B5
:10009600F0A42EFFE435F0CD89F0A42DFEE435F072
:1000A6008067EF4E7005BD80D780C3EF8BF0A4ACA0
:1000B600F0EE8BF0A42CFCE435F0F8EF8AF0A42CDB
:1000C600E5F038FCE433CB8DF0A42CFCE5F03BF8EE
:1000D600EE8AF0A42CFCE5F038F8E433CF89F0A4DE
:1000E6002CFCE5F038CF3400CE89F0A42FFFE5F0E4
:1000F6003EFEE433C98DF0A42EFEE5F039CD8AF03C
:10010600A42FFFE5F03EFEE43DFD33D0E0FB5007B3
:100116000BBB000F0201E0EC2CFCEF33FFEE33FECD
:06012600ED33FD0201B8FB
:10012C0075F020800E75F010800575F0087D007E4E
:10013C00007F003392D530D5031206EEEC3340101D
:10014C00EF33FFEE33FEED33FDEC33FCD5F0ED2257
:0E015C00E5F0247EA2D513CC92E7CDCEFF2293
:10016A00EDD2E7CD33EC3392D524814006E4FFFE8D
:10017A00FDFC22FCE4CFCECDCC24E0501174FF80EC
:10018A00EDC3CC13CCCD13CDCE13CECF13CF047089
:07019A00F030D5DE0206EE95
:10091300E5082458F582E43400F583E005082290C5
:100923000055300703900058E475F0011206FC02ED
:10093300062B2000E97F2ED2008018EF540F24905D
:10094300D43440D4FF30040BEF24BFB41A00500357
:100953002461FFE50960021509050CE50C70020529
:100963000B30070E900055E475F0011206FCEF0200
:1009730006A4021A417403D2078003E4C207F508F0
:10098300900055120713E4F509F50BF50CE5096022
:10099300077F2012095680F5750AFFC201C200C203
:1009A30002C203C205C206C208120922FF700D303B
:1009B30007057F00120967AF0CAE0B22B4255FC297
:1009C300D5C204120922FF24D0B40A00501A75F0CC
:1009D3000A780930D50508B6FF0106C6A426F62015
:1009E300D5047002D20380D924CFB41A00EF500487
:1009F300C2E5D204020C59D20180C6D20080C0D213
:100A03000280BCD2D580BAD20580B47F20120956A9
:100A13002002077401B5090040F1120913FF1209FE
:100A230056020990D208D2068095120913FB1209C7
:100A330013FA120913F94A4B700679577A0D7BFFA3
:100A430020022EE509602A7E008E8275830012063D
:100A53004460060EEE650A70F0C2D5EBC0E0EAC052
:100A6300E0E9C0E0EE120CBAD0E0F9D0E0FAD0E051
:100A7300FB12062BFF60AAEBC0E0EAC0E0E9C0E08E
:100A8300120956D0E02401F9D0E03400FAD0E0FB9B
:100A9300E50A0460DCD50AD98087D20280A2120C51
:100AA3009C60F7E50A7001041201EBA90A600DE5E9
:100AB3000A600914F50A120D44EF60F3EA30E70205
:100AC300F404C3995079EAF4250A0430E701E404F5
:100AD300F50A800D120C9C60C1EA050A250A120171
:100AE300EBEA900084F030E701E4250A04D50A0418
:100AF30020050114120CBAE4C0E0120D44900084E6
:100B0300E0601320E70714F012093E802204F0D0BE
:100B1300E014C0E07F0012093EE50A6007120935C0
:100B2300150A800B300503120935D0E0020990D075
:100B3300E00480C4120C9C609EE50A041201EB9051
:100B43000084EAF0E50A2005026001042404120C83
:010B5300BAE7
:100B540074FF04C0E0120D4412093EE50A200502A8
:100B64006003120935D0E0B50AE87F4512094890C0
:100B74000084E07F2B30E7047F2DF404C0E01209E9
:100B840056D0E075F00A84C0F012093FD0E0120993
:100B94003F020990791080027908C206C2088008D1
:100BA400D2D5790A8004790AC2D5E50A047002F51F
:100BB4000AE4FAFDFEFF120913FC7B08200113125C
:100BC4000913FD7B1030000A120913FE120913FFEA
:100BD4007B20EC3382D592D55013C3E43000069FBA
:100BE400FFE49EFEE42001039DFDE49CFCE4CBF8BD
:100BF400C201EC700CCFCECDCCE824F8F870F380B1
:100C040017C3EF33FFEE33FEED33FDEC33FCEB3370
:100C1400FB994002FB0FD8E9EB300105F8D0E0C4A2
:100C240048B201C0E00AEC4D4E4F78207B0070C200
:100C3400EAB50A0040BCC0E0120CBCD0F0D0E02001
:100C44000104C4C0E0C4B201C0F012093FD0F0D521
:100C5400F0EB0209901208680A2D530B985809FE0C
:100C64004C09FA420B9C4F0BA4440BA4490A1343AE
:100C74000BAA550AD7460B37450AA1470D77500AE8
:100C8400022D0A062E0A292B0A0A230A27200D60A0
:100C94002A09C24800000A21E50AB4FF03750A06BE
:100CA400120913FC120913FD120913FE120913FF92
:100CB40090007D020228790AA2D520031430050988
:100CC400B910020404B9080104A2D5200602500197
:100CD400042002689202B509005034C0E07F20303D
:100CE40003197F30A20272067205500F120D13C24F
:100CF40002C206C205C2087F30800F300503E9C076
:100D0400E0120956300503D0E0F9D0E0B509CC3043
:100D140005177F30B9100C1209567F583004077F2D
:100D2400788003B908031209563002057F2D0209A1
:100D3400567F202008F87F2B2006F322920280CFD2
:100D44007F00B40700500B247DF582E43400F58362
:100D5400E0FF22286E756C6C2900D2011209133051
:100D640001F8C201780930D50108F60209C22D50F4
:100D74004349581209132403B405004001E4900DBB
:100D84007293120947743A120947D203750904028F
:020D94000B98BA
:1001A100E9D2E7C933E833F892D5EDD2E7CD33ECA4
:0701B10033FC5002B2D5221D
:1001B800EC30E7100FBF000C0EBE00080DBD0004A8
:1001C8000BEB6014A2D5EB13FCED92E7FD2274FF54
:1001D800FCFDFEFF22E480F8A2D574FF13FC7D80AD
:0301E800E480EFC1
:1001EB00F920E73624F950037907E4F42402FBE500
:1001FB0082158270021583DBF6E024FB501BE9604D
:10020B0014E4F0E582158270021583E004F0B40A61
:0D021B0008E4F0D9EE7401F00A22C2D522E9
:10022800ED33EC3392D5FA602AB4FF33EDC2E77BA5
:10023800FF60067A02794DE4227A02795620D504C5
:100248007A027951224E614E002B494E46002D49C3
:100258004E4600E47A08F0A3DAFC7B00740722C05B
:1002680083C082ECC0E0EDC0E0EEC0E0EFC0E0EAA1
:1002780075F010A4CAABF075F04DA42BFBE435F073
:10028800FCEA2410FAEB34C5FBEC34D9FCEDC2E7E8
:10029800FF75F056A4F42411C5F0F434C58FF0A40A
:1002A8002AE5F03BE43CF020E7141204F5D0E0FF27
:1002B800D0E0FED0E0FDD0E0FC1204288014F40465
:1002C8001204F5D0E0FFD0E0FED0E0FDD0E0FC1253
:1002D8000026D082D083E0FAEDD2E7CD33EC332488
:1002E80082FBE4C3CF33CFCE33CECD33CD33DBF374
:1002F8007B0775F00A846004F0A31B0AE5F0F0A3FD
:100308008FF0740AA4FFACF08EF0740AA42CFEAC33
:10031800F050010C8DF0740AA42CFDE435F0F0A324
:05032800DBDE7407227A
:10032D000201D6E86480F8E933E83360110460F027
:10033D00ED33EC337009E8FCE9FDEAFEEBFF220436
:10034D0060DED3EB9FEA9EE99DE8C2E78CF0C2F731
:10035D0095F0400CE8CCF8E9CDF9EACEFAEBCFFBFD
:10036D001201A185D0F05804700320D5B3E80470B4
:10037D00075002B2D50201E092D5EC0460F7E4CC4F
:10038D00C0E0C398F8603B94186008400DD0E0FBC6
:10039D000201B8E4FBFAC9FC8028E830E406E4C9A0
:1003AD00FBE4CAFCE830E305E4C9CACBFCE854071A
:1003BD006010F8C3E913F9EA13FAEB13FBEC13FC25
:1003CD00D8F130F52FC3E49CFCEF9BFFEE9AFEEDC8
:1003DD0099FDD0E0FBEF4E4D4C701222DB03020174
:1003ED00DDEC2CFCEF33FFEE33FEED33FDED30E7AE
:1003FD00EB0201B8EF2BFFEE3AFEED39FDD0E0FB3D
:10040D0050130BBB00030201E0ED13FDEE13FEEFE5
:08041D0013FFEC13FC0201B80F
:100425000201E0EC5D046005E8590470030201D6A1
:100435001201A1580460F6EC4860F2EC7004FDFE70
:10044500FF22C860DB2481C85009C39860025006AA
:100455000201DD9850CAF582E9294B4A7005AB8245
:100465000201CC75F0007C1A7880C3EF9BEE9AED03
:1004750099400DC3EF9BFFEE9AFEED99FDE842F022
:10048500DC23ACF0D0E0FFD0E0FED0E0FDAB822075
:10049500E7101BEB60BAEC2CFCEF33FFEE33FEEDFF
:1004A50033FD0201B8E803F830E705C0F075F00048
:1004B500EF2FFFEE33FEED33FD40B830E7C280AAE3
:1004C5003F8000004120000042C80000447A00003F
:1004D500461C400047C35000497424004B189680C1
:1004E5004CBEBC205A0E1BCA6753C21C749DC5AEB8
:1004F500FB60065407601C2323120523EB54386068
:100505000912050F12051E120026ECF8EDF9EEFA98
:10051500EFCB22EB12051E80F1543803241C900406
:10052500C5FE93FC0EEE93FD0EEE930ECE93FF22C9
:0300000002149C4B
:0C149C00787FE4F6D8FD7581210214E38E
:10053500E709F608DFFA8046E709F208DFFA803EA8
:1005450088828C83E709F0A3DFFA8032E309F60895
:10055500DFFA8078E309F208DFFA807088828C83FD
:10056500E309F0A3DFFA806489828A83E0A3F608B1
:10057500DFFA805889828A83E0A3F208DFFA804C8B
:1005850080D280FA80C680D4806980F28033801062
:1005950080A680EA809A80A880DA80E280CA8033CB
:1005A50089828A83ECFAE493A3C8C582C8CCC58343
:1005B500CCF0A3C8C582C8CCC583CCDFE9DEE78013
:1005C5000D89828A83E493A3F608DFF9ECFAA9F092
:1005D500EDFB2289828A83ECFAE0A3C8C582C8CCE8
:1005E500C583CCF0A3C8C582C8CCC583CCDFEADE01
:1005F500E880DB89828A83E493A3F208DFF980CC63
:1006050088F0EF60010E4E60C388F0ED2402B4045B
:100615000050B9F582EB2402B4040050AF23234502
:060625008223900585739D
:10062B00BB010689828A83E0225002E722BBFE02CD
:09063B00E32289828A83E4932200
:10064400BB010CE58229F582E5833AF583E022506B
:1006540006E92582F8E622BBFE06E92582F8E222B5
:0D066400E58229F582E5833AF583E49322CF
:10067100BB010FF8E58229F582E5833AF583E0288D
:10068100F0225009C58229F8E58226F622BBFE092F
:10069100C58229F8E22582F222F8EA2583F583E969
:0306A10093282279
:1006A400BB010689828A83F0225002F722BBFE0135
:0206B400F3222F
:1006B600F8BB010DE58229F582E5833AF583E8F07A
:1006C600225006E92582C8F622BBFE05E92582C826
:0206D600F2220E
:1006D800A3F8E0C5F025F0F0E582158270021583D5
:0606E800E0C838F0E82232
:0E06EE00C3E49FFFE49EFEE49DFDE49CFC221D
:1006FC00F8E0FBA3A3E0F925F0F0E5821582700287
:07070C001583E0FA38F0222A
:09071300EBF0A3EAF0A3E9F022E7
:10071C00BB010789828A830208DC5005E9F80208CC
:10072C00BABBFE05E9F80208E589828A830209074B
:10073C00BB010789828A830206FC5006C9F8C902EC
:10074C0008C3BBFE06C9F8C90208EE89828A830277
:02075C0009078B
:10075E00BB011A89828A83D0F0D0E0F8D0E0F9D0BC
:10076E00E0FAD0E0FBE8C0E0C0F00207135016E953
:10077E00F8D083D082D0E0F9D0E0FAD0E0FBC0828E
:10078E00C0830208D3BBFE16E9F8D083D082D0E036
:0F079E00F9D0E0FAD0E0FBC082C0830208FE224F
:1007AD00BB010DE58229F582E5833AF5830208DC6C
:1007BD005007E92582F80208BABBFE07E92582F841
:1007CD000208E5E58229F582E5833AF583020907FA
:1007DD00BB010DC58229C582C5833AC5830206FCBE
:1007ED005008F8E92582C80208C3BBFE08F8E925C0
:1007FD0082C80208EEC58229C582C5833AC5830227
:02080D000907D9
:10080F00BB0120E58229F582E5833AF583D0F0D04C
:10081F00E0F8D0E0F9D0E0FAD0E0FBE8C0E0C0F0BB
:10082F000207135018E92582F8D083D082D0E0F95F
:10083F00D0E0FAD0E0FBC082C0830208D3BBFE1821
:10084F00E92582F8D083D082D0E0F9D0E0FAD0E069
:09085F00FBC082C0830208FE22E6
:10086800D083D082F8E4937012740193700DA3A31F
:1008780093F8740193F5828883E473740293686033
:06088800EFA3A3A380DF33
:10088E00EF4E6012EF60010EEDBB010B89828A8381
:10089E00F0A3DFFCDEFA2289F05007F709DFFCA98E
:0C08AE00F022BBFEFCF309DFFCA9F022E5
:1014A8000218B1E493A3F8E493A34003F68001F291
:1014B80008DFF48029E493A3F85407240CC8C33345
:1014C800C4540F4420C8834004F456800146F6DF14
:1014D800E4800B01020408102040809018D1E47EBB
:1014E800019360BCA3FF543F30E509541FFEE49309
:1014F800A360010ECF54C025E060A840B8E493A3D0
:10150800FAE493A3F8E493A3C8C582C8CAC583CAFA
:10151800F0A3C8C582C8CAC583CADFE9DEE780BEB2
:0118EF0000F8
:0908BA00E6FB08E6FA08E6F92263
:1008C300FAE6FB0808E6F925F0F618E6CA3AF62236
:0908D300EBF608EAF608E9F6224A
:0908DC00E0FBA3E0FAA3E0F9221D
:0908E500E2FB08E2FA08E2F92244
:1008EE00FAE2FB0808E2F925F0F218E2CA3AF2221F
:0908FE00EBF208EAF208E9F2222B
:0C090700E493FB740193FA740293F9224C
:00000001FF
