:101993007B017A007900121672D28AD2AA7D017F66
:1019A300807E25121904121A7F121AE912188DD299
:0E19B30090D294D2B4C291C295C2C3D2AF22D8
:101B6100121993C283300AFDC20AB2839000ACE01D
:061B7100FF12000380EFEB
:0B1BA000EF1FAC0670011E4C70F62217
:0A1BAB0000007F127EEADEFEDFFC80
:011BB500220D
:101B8C00AD07AC06ED1DAE0470011C4E6005121BBA
:041B9C00AB80F12207
:0B1BB600EF1FAC0670011E4C70F62201
:10196400546865204D7367205175657565206973EA
:1019740020456D7074792C63616E277420676574DB
:0F198400206F75742066726F6D2069740D0A00F4
:0419EE00410047006D
:1016720090004BEBF0A3EAF0A3E9F090004BE0FB03
:10168200A3E0FAA3E02406F9E43AFAC003C002C0D8
:101692000190004BA3E0FAA3E0F912075E90004B21
:1016A200E0FBA3E0FAA3E02406F9E43AFAC003C09F
:1016B20002C00190004BA3E0FAA3E0F990000312EC
:1016C200080F7E007F407D0090004BE0FBA3E0FA14
:1016D200A3E02406F9E43AFA12088E90004BE0FBEC
:0D16E200A3E0FAA3E0F9900046E40206B68A
:10142B00900048EBF0A3EAF0A3E9F0900048E0FB52
:10143B00A3E0FAA3E0F9900046120644C39440409F
:10144B00047F0180027F00EF60037F0022AF05E481
:10145B0075F00112073CEF1206A4900048E0FBA3C5
:10146B00E0FAA3E02446F9E43AFAC003C002C00153
:10147B00900048A3E0FAA3E0F912071CD082D083B6
:10148B00D0E06B7008E965827003EA658370229087
:10149B000048E0FBA3E0FAA3E02406F9E43AFAC023
:1014AB0003C002C001900048A3E0FAA3E0F91207C1
:1014BB005E900048E0FBA3E0FAA3E0F990004674CD
:0714CB00011206717F0122EE
:0B11E0009000BDEBF0A3EAF0A3E9F0E3
:1011EB00E4A3F09000BDE0FBA3E0FAA3E0F99000CC
:1011FB004612064470047F0180027F00EF600C7B77
:10120B00FF7A197964120A4C0212A49000BDE0FB1C
:10121B00A3E0FAA3E0F9900003E475F0011207DDF7
:10122B0012062B9000C0F09000BDE0FBA3E0FAA3E8
:10123B00E0F99000031207ADC003C002C00190009B
:10124B00BDE0FBA3E0FAA3E02446F9E43AFAD0822E
:10125B00D083D0E06B7008E965827003EA65837018
:10126B00259000BDE0FBA3E0FAA3E02406F9E43AE5
:10127B00FAC003C002C0019000BDA3E0FAA3E0F9DD
:10128B0090000312080F9000BDE0FBA3E0FAA3E06F
:0E129B00F990004674FF1206719000C0E0FF4B
:0112A9002222
:1019040053877F759850EDB40105438E04800353CB
:101914008EFBAB07AA06E4F9F87F807EBBFDFC12C0
:101924001849EFF404F59C438E01438E10D2AC2287
:080003008F993099FDC299228A
:030023000217655C
:10176500C0E0C0F0C083C082C0D075D000C000C04A
:0B17750001C002C003C005C006C00791
:10178000309816C298AE99AF061200037B017A001A
:0B1790007900AD0712142B8002C299F3
:10179B00D007D006D005D003D002D001D000D0D0D6
:0917AB00D082D083D0F0D0E032EE
:061BC100AE071200032232
:101B0200E4FEC2B1EF1392B0EFC313FFD2B10EEEF7
:071B1200B408EFD2C3C2C307
:011B190022A9
:101B1A00E4FEC297EF139296EFC313FFD2970EEE2D
:071B2A00B408EFD295C2954B
:011B31002291
:101B3200E4FEC293EF139292EFC313FFD2930EEE21
:071B4200B408EFD291C2913B
:011B49002279
:101A9B00E4FEFDEE25E0FEEF30E004EE4401FEEF48
:0A1AAB00C313FF0DEDB408EBAF0606
:011AB500220E
:061BC700121A9B8FA02200
:0810F0009000C1EEF0A3EFF047
:1010F800A374FEF0E4A3F0E49000C4F09000C3E011
:10110800FF121BC7E0FF780108800123D8FD90007B
:10111800C3F09000C1E0FEA3E0FF121B8C9000C456
:10112800E004F0E0C3940840D37FFF121BC7E490AB
:1011380000C4F09000C3E0FF121B02E0FF78010832
:10114800800123D8FD9000C3F0C2B49000C1E0FE36
:10115800A3E0FF121B8CD2B49000C4E004F0E0C3FB
:10116800940840CFE49000C4F09000C3E0FF121B45
:101178001AE0FF780108800123D8FD9000C3F0C26F
:10118800949000C1E0FEA3E0FF121B8CD294900063
:10119800C4E004F0E0C3940840CFE49000C4F090A9
:1011A80000C4E0C3940840030210FF9000C3E0FFAE
:1011B800121B32E0FF780108800123D8FD9000C39C
:1011C800F0C2909000C1E0FEA3E0FF121B8CD29009
:0811D8009000C4E004F080C7A0
:1014D2004453313330322069732072756E6E696EF7
:1014E20067210D0A0057726974652054696D652081
:1014F200746F2044533133303220737563636573E4
:101502007365640D0A003230253032782D25303271
:10151200782D2530327820253032783A25303278CD
:101522003A253032780D0A00636C656172204D7382
:10153200670D0A004920646F6E2774206B6E6F7707
:1015420020776861742069732077726F6E6721005B
:0E155200160309140929000000000000000023
:10188D0090004B74AAF0784C7C007D017BFF7A159B
:10189D0079527E007F071206057FC0121B779000DC
:1018AD004BE06F60147B017A00794C1217B475A070
:1018BD00FE90004BE0FF021AD07BFF7A1479D21212
:0218CD000A4CC3
:0118CF0022F6
:101AB600E4FEEF30E004D2B68002C2B6D2B5C2B5BB
:091AC600EFC313FF0EEEB408E9B2
:011ACF0022F4
:101A6000E4FFFEEEC313FE30B6054480FE8004EEB4
:0E1A7000547FFED2B5C2B50FEFB408E7AF0643
:011A7E002245
:101B4A00C2B7C2B5D2B7EF54FEFF121AB6AF05122A
:071B5A001AB6D2B5C2B72292
:101B7700C2B7C2B5D2B7EF4401FF121AB6121A6044
:041B8700D2B5C2B75A
:011B8B002237
:0B17B400900053EBF0A3EAF0A3E9F073
:1017BF00E4FCA3748CF0E4FD7F8E121B4A7D807FC6
:1017CF0080121B4A900056E0FF900053E0FBA3E00D
:1017DF00FAA3E0F98C82758300120644FD121B4AAE
:1017EF00900056E024FEF00CECB407D87D807F8E7D
:0317FF00021B4A80
:10193400E4FD9000CDEBF0A3EAF0A3E9F07C8CAFDA
:1019440004121B779000CDE0FBA3E0FAA3E0F98D2D
:0F19540082758300EF1206B61C1C0DEDB407E080
:011963002261
:101AD000AC07E4FD7F8E121B4AAF04AD077FC01236
:091AE0001B4A7D807F8E021B4A27
:100FC40078AD7C007D017BFF7A1579597E007F071F
:100FD400120605E49000B4F0900047E024FE605A45
:100FE4001470030210A2240270EEE4900047F09003
:100FF4000046E0B407E2E49000B4F0900046E0FF5D
:101004009000B4E0C39F50207B017A007900121154
:10101400E09000B4E024ADF582E43400F583EFF011
:101024009000B4E004F080D37B017A0079AD12170C
:10103400B47BFF7A1479E70210DEE4900047F07B7A
:10104400017A0079AD1219347BFF7A157908900082
:10105400ADE0FF900056E4F0A3EFF09000AFE0FFA6
:10106400900058E4F0A3EFF09000B0E0FF90005A35
:10107400E4F0A3EFF09000B1E0FF90005CE4F0A393
:10108400EFF09000B2E0FF90005EE4F0A3EFF09088
:1010940000B3E0FF900060E4F0A3EFF0803CE49044
:1010A4000047F09000B4F0900046E0FF9000B4E0F8
:1010B400C39F50117B017A0079001211E09000B4B3
:1010C400E004F080E2900046E070047F0180027F3B
:1010D40000EF600C7BFF7A15792A120A4C020FDCB0
:0C10E4007BFF7A157936120A4C020FDCF3
:1019C100E49000D4F0C2C07FF47E01121BA0D2C00B
:1019D1007F327E00121BA0A2C0E4339000D4F07FBE
:0C19E100C27E01121BA030C002C322D342
:0119ED0022D7
:10180200E49000D0F0A3F09000D0F09000D1E0C3BB
:1018120013F0C2C07F047E00121BA0D2C07F0A7EDA
:1018220000121BA030C0079000D1E04480F07F3C42
:101832007E00121BA09000D0E004F0E0C3940840A8
:06184200CA9000D1E0FF96
:01184800227D
:0518D0009000D2EFF0D2
:1018D500E4A3F0F0C2C07F047E00121BA09000D2EA
:1018E500E01392C07F327E00121BA0D2C09000D2BE
:0E18F500E0C313F0A3E004F0E0C3940840D673
:0119030022C1
:1016EF001219C17FCC1218D07F441218D07F0A7EF6
:1016FF0000121BA01219C17FCC1218D07FBE121876
:10170F00D01218029000C6EFF01218029000C5EF29
:10171F00F0E49000C7F0A3F01218029000C8E004A4
:10172F00F070069000C7E004F0C39000C8E0940783
:10173F009000C7E0940040E09000C5E0FEA3E0FDFC
:10174F00EDFFAC06E4120131E4FBFA7920783F1289
:05175F00002612016AE2
:011764002262
:0E19F200C10BC10CC1094100ACFF41008600D1
:1012AA00E4FFC2AA90008304F0A37400F0A374A818
:1012BA00F0E4FEE4FD74872FF582E43400F583E060
:1012CA00FCD39404402AEC94095025900083E0FB57
:1012DA00A3E0FAA3E0F912062BC3131206A49000A6
:1012EA0083E0FBA3E0FAA3E0F912062B547F8039CE
:1012FA0074872FF582E43400F583E0FCD3940B4025
:10130A002BEC94105026900083E0FBA3E0FAA3E0B4
:10131A00F912062BC3131206A4900083E0FBA3E084
:10132A00FAA3E0F912062B44801206A40F0DED640D
:10133A00087082900084E475F0011206D80EEE64FB
:10134A000460030212BD9000AAE0FFFDA3E02DFD98
:10135A00E433FCEDF44C7007A3EFF0D20A80069058
:07136A0000AC74FFF0D2AAF1
:011371002259
:030013000215ECE7
:0D15EC00C0E0C0F0C083C082C0D075D00840
:1015F900D28E9000B5E09000BCF09000B5E4F030D8
:101609000B10C20B900086F09000B5F0C20CC20915
:10161900804CA209720C50289000BCE0FF90008613
:10162900E0FE04F074872EF582E43400F583EFF0D0
:10163900900086E0B42009E4F0C20CC28E1212AA0E
:101649009000BCE0FFD394354007D20C900086E4AB
:0E165900F0EFD394724007D209900086E4F0BF
:0B166700D0D0D082D083D0F0D0E03291
:100E6400FBFFDBEFDBEDDBDE80013BBFBB7DFBFD8E
:100E7400FBFB0037FBCFBBD7CBBBFA7DFBE0FFFF0F
:100E8400FEFFD97DCB7BD376DB6EDB1EC84DB3551D
:100E9400BB5BBB5BB3558B4D3B7EBAFEF9FEFFFFDC
:100EA400FF7FFEFFF9FFE0001FFFFDF7FBCFE73FE9
:100EB4000FFDEFFEEC01EFFFEF7FEB9FE7E7FFFF96
:100EC400DFF7D82D5BBE9B81DBBFD82FDFF6FBF9A4
:100ED400FBC7003FFBFFB803CBFDFBFDFBF1FFFFAE
:100EE400F7FDF7BBF05707EFF797F079FFFFFEFF29
:100EF400BEFDBEFEB801B6FFAEFF9EFFFEFFFFFFC4
:100F0400FF7FFEFFF9FFE00017FFEFADC1AD2D5BE2
:100F1400ACB5A96EA5818DDFEDA7E17BFFFDFFFFD9
:100F2400FF7FFEFFF9FFE0001FFFFDF7FBCFE73F68
:100F34000FFDEFFEEC01EFFFEF7FEB9FE7E7FFFF15
:100F4400FFFEFFFDFFF3FF8F007FFFBEFFCDFFFB22
:100F5400FFE7FF1F00FFFF1FFFE7FFF9FFFEFFFF93
:100F6400FEFBFEFBEEF7EEEFEEDFEEBFEE7F0000E2
:100F7400EE7FEEBFEEDFEEEFEEF7FEFBFEFBFFFFD4
:100F8400FDFFFDFEBDFDCC03FFFDFBFABBE6B81E75
:100F9400BBFEBBFEB806BBFABBFAFBC2FFFEFFFFFB
:100FA400DFFFDF80DFBFD0BFDEB7D4A35A979A3705
:100FB400DAB7D4A7DEB3D0BDDFBEDF81DFFFFFFF2A
:10137200E49000C9F0A3F0A3F0A3F075A0FF20B29F
:10138200FD9000CCE004F070069000CBE004F0D3B6
:101392009000CCE094A09000CBE094004004E4F0F4
:1013A200A3F09000CBE0FFA3E09000C9CFF0A3EF41
:1013B200F09000CCE024A0FF9000CBE03400FE903F
:1013C20000C9E0FCA3E0FDC39FEC9E50B1ED25E017
:1013D200FFEC33FE74642FF582740E3EF583E493C2
:1013E200FF121B329000CAE025E0FF9000C9E033F3
:1013F200FE74652FF582740E3EF583E493FF121B93
:101402001A7FFF121B02C290C294C2B47FAA7E004E
:10141200121BB6D290D294D2B49000CAE004F070FB
:09142200909000C9E004F08088FC
:101A00004100B6C44100B8004200BA00004100B72E
:051A1000004100B900D7
:101A7F00538E7F5389F04389019000B8E0F58A9027
:0C1A8F0000B6E0F58CC28DD2A9D28C22EA
:03000B00021A16C0
:101A1600C0E0C083C0829000B8E0F58A9000B6E0CE
:101A2600F58C9000BBE004F070069000BAE004F07C
:071A3600D082D083D0E03222
:101AE900538EBF53890F4389209000B9E0F58B8548
:091AF9008B8DC28FD2ABC28E228C
:03001B00021A3D89
:101A3D00C0E0C083C082C0D075D0109000B5E0FF6B
:101A4D0004F0EFD394FA4002D20BD0D0D082D083E1
:031A5D00D0E032A4
:10002600EC4D6011E8497017ED33EC3304600DE4D4
:10003600FCFFFEFD22E933E8330470F80201D61214
:1000460001A158046009E4CC248150062850090215
:1000560001E02840030201DDC0E0EB4A7044B980AC
:1000660006D0E0FB0201CCEF4E701CBD8008EBFF12
:10007600EAFEE9FD80EBE98DF0A4FEE5F002010F52
:10008600E9CDF9EAFEEBFFEF89F0A4FCE5F0CE89B5
:10009600F0A42EFFE435F0CD89F0A42DFEE435F072
:1000A6008067EF4E7005BD80D780C3EF8BF0A4ACA0
:1000B600F0EE8BF0A42CFCE435F0F8EF8AF0A42CDB
:1000C600E5F038FCE433CB8DF0A42CFCE5F03BF8EE
:1000D600EE8AF0A42CFCE5F038F8E433CF89F0A4DE
:1000E6002CFCE5F038CF3400CE89F0A42FFFE5F0E4
:1000F6003EFEE433C98DF0A42EFEE5F039CD8AF03C
:10010600A42FFFE5F03EFEE43DFD33D0E0FB5007B3
:100116000BBB000F0201E0EC2CFCEF33FFEE33FECD
:06012600ED33FD0201B8FB
:10012C0075F020800E75F010800575F0087D007E4E
:10013C00007F003392D530D5031206EEEC3340101D
:10014C00EF33FFEE33FEED33FDEC33FCD5F0ED2257
:0E015C00E5F0247EA2D513CC92E7CDCEFF2293
:10016A00EDD2E7CD33EC3392D524814006E4FFFE8D
:10017A00FDFC22FCE4CFCECDCC24E0501174FF80EC
:10018A00EDC3CC13CCCD13CDCE13CECF13CF047089
:07019A00F030D5DE0206EE95
:1009E100E5182456F582E43400F583E005182290D9
:1009F1000053300703900056E475F0011206FC0223
:100A0100062B2000E97F2ED2008018EF540F24908E
:100A1100D43440D4FF30040BEF24BFB41A00500388
:100A21002461FFE51960021519051CE51C7002051A
:100A31001B30070E900053E475F0011206FCEF0223
:100A410006A4021BC17403D2078003E4C207F51890
:100A5100900053120713E4F519F51BF51CE5196015
:100A6100077F20120A2480F5751AFFC201C200C255
:100A710002C203C205C206C2081209F0FF700D309E
:100A810007057F00120A35AF1CAE1B22B4255FC2D9
:100A9100D5C2041209F0FF24D0B40A00501A75F02F
:100AA1000A781930D50508B6FF0106C6A426F62036
:100AB100D5047002D20380D924CFB41A00EF5004B8
:100AC100C2E5D204020D27D20180C6D20080C0D275
:100AD1000280BCD2D580BAD20580B47F20120A240C
:100AE1002002077401B5190040F11209E1FF120A51
:100AF10024020A5ED208D20680951209E1FB12098E
:100B0100E1FA1209E1F94A4B700679257A0E7BFF69
:100B110020022EE519602A7E008E8275830012065E
:100B21004460060EEE651A70F0C2D5EBC0E0EAC073
:100B3100E0E9C0E0EE120D88D0E0F9D0E0FAD0E0B3
:100B4100FB12062BFF60AAEBC0E0EAC0E0E9C0E0BF
:100B5100120A24D0E02401F9D0E03400FAD0E0FBFD
:100B6100E51A0460DCD51AD98087D20280A2120D61
:100B71006A60F7E51A7001041201EBA91A600DE52C
:100B81001A600914F51A120E12EF60F3EA30E70247
:100B9100F404C3995079EAF4251A0430E701E40416
:100BA100F51A800D120D6A60C1EA051A251A1201A3
:100BB100EBEA900082F030E701E4251A04D51A042B
:100BC10020050114120D88E4C0E0120E129000827B
:100BD100E0601320E70714F0120A0C802204F0D021
:100BE100E014C0E07F00120A0CE51A6007120A0344
:100BF100151A800B300503120A03D0E0020A5ED0F9
:100C0100E00480C4120D6A609EE51A041201EB90A3
:100C11000082EAF0E51A2005026001042404120DA5
:010C2100884A
:100C220074FF04C0E0120E12120A0CE51A2005022B
:100C32006003120A03D0E0B51AE87F45120A169043
:100C42000082E07F2B30E7047F2DF404C0E0120A1B
:100C520024D0E075F00A84C0F0120A0DD0E0120A26
:100C62000D020A5E791080027908C206C208800865
:100C7200D2D5790A8004790AC2D5E51A047002F540
:100C82001AE4FAFDFEFF1209E1FC7B0820011312AF
:100C920009E1FD7B1030000A1209E1FE1209E1FFB1
:100CA2007B20EC3382D592D55013C3E43000069FEB
:100CB200FFE49EFEE42001039DFDE49CFCE4CBF8EE
:100CC200C201EC700CCFCECDCCE824F8F870F380E2
:100CD20017C3EF33FFEE33FEED33FDEC33FCEB33A2
:100CE200FB994002FB0FD8E9EB300105F8D0E0C4D4
:100CF20048B201C0E00AEC4D4E4F78207B0070C232
:100D0200EAB51A0040BCC0E0120D8AD0F0D0E02053
:100D12000104C4C0E0C4B201C0F0120A0DD0F0D583
:100D2200F0EB020A5E1208680AFB530C66580ACC02
:100D32004C0AC8420C6A4F0C72440C72490AE143D5
:100D42000C78550BA5460C05450B6F470E45500A0E
:100D5200D02D0AD42E0AF72B0AD8230AF5200E2EFC
:100D62002A0A904800000AEFE51AB4FF03751A0632
:100D72001209E1FC1209E1FD1209E1FE1209E1FF8B
:100D820090007B020228790AA2D5200314300509BB
:100D9200B910020404B9080104A2D52006025001C8
:100DA200042002689202B519005034C0E07F20305E
:100DB20003197F30A20272067205500F120DE1C2B2
:100DC20002C206C205C2087F30800F300503E9C0A7
:100DD200E0120A24300503D0E0F9D0E0B519CC3096
:100DE20005177F30B9100C120A247F583004077F90
:100DF200788003B90803120A243002057F2D020A03
:100E0200247F202008F87F2B2006F322920280CF35
:100E12007F00B40700500B247BF582E43400F58395
:100E2200E0FF22286E756C6C2900D2011209E130B4
:100E320001F8C201781930D50108F6020A902D5046
:100E42004349581209E12403B405004001E4900E1D
:100E52004093120A15743A120A15D2037519040244
:020E62000C661C
:1001A100E9D2E7C933E833F892D5EDD2E7CD33ECA4
:0701B10033FC5002B2D5221D
:1001B800EC30E7100FBF000C0EBE00080DBD0004A8
:1001C8000BEB6014A2D5EB13FCED92E7FD2274FF54
:1001D800FCFDFEFF22E480F8A2D574FF13FC7D80AD
:0301E800E480EFC1
:1001EB00F920E73624F950037907E4F42402FBE500
:1001FB0082158270021583DBF6E024FB501BE9604D
:10020B0014E4F0E582158270021583E004F0B40A61
:0D021B0008E4F0D9EE7401F00A22C2D522E9
:10022800ED33EC3392D5FA602AB4FF33EDC2E77BA5
:10023800FF60067A02794DE4227A02795620D504C5
:100248007A027951224E614E002B494E46002D49C3
:100258004E4600E47A08F0A3DAFC7B00740722C05B
:1002680083C082ECC0E0EDC0E0EEC0E0EFC0E0EAA1
:1002780075F010A4CAABF075F04DA42BFBE435F073
:10028800FCEA2410FAEB34C5FBEC34D9FCEDC2E7E8
:10029800FF75F056A4F42411C5F0F434C58FF0A40A
:1002A8002AE5F03BE43CF020E7141204F5D0E0FF27
:1002B800D0E0FED0E0FDD0E0FC1204288014F40465
:1002C8001204F5D0E0FFD0E0FED0E0FDD0E0FC1253
:1002D8000026D082D083E0FAEDD2E7CD33EC332488
:1002E80082FBE4C3CF33CFCE33CECD33CD33DBF374
:1002F8007B0775F00A846004F0A31B0AE5F0F0A3FD
:100308008FF0740AA4FFACF08EF0740AA42CFEAC33
:10031800F050010C8DF0740AA42CFDE435F0F0A324
:05032800DBDE7407227A
:10032D000201D6E86480F8E933E83360110460F027
:10033D00ED33EC337009E8FCE9FDEAFEEBFF220436
:10034D0060DED3EB9FEA9EE99DE8C2E78CF0C2F731
:10035D0095F0400CE8CCF8E9CDF9EACEFAEBCFFBFD
:10036D001201A185D0F05804700320D5B3E80470B4
:10037D00075002B2D50201E092D5EC0460F7E4CC4F
:10038D00C0E0C398F8603B94186008400DD0E0FBC6
:10039D000201B8E4FBFAC9FC8028E830E406E4C9A0
:1003AD00FBE4CAFCE830E305E4C9CACBFCE854071A
:1003BD006010F8C3E913F9EA13FAEB13FBEC13FC25
:1003CD00D8F130F52FC3E49CFCEF9BFFEE9AFEEDC8
:1003DD0099FDD0E0FBEF4E4D4C701222DB03020174
:1003ED00DDEC2CFCEF33FFEE33FEED33FDED30E7AE
:1003FD00EB0201B8EF2BFFEE3AFEED39FDD0E0FB3D
:10040D0050130BBB00030201E0ED13FDEE13FEEFE5
:08041D0013FFEC13FC0201B80F
:100425000201E0EC5D046005E8590470030201D6A1
:100435001201A1580460F6EC4860F2EC7004FDFE70
:10044500FF22C860DB2481C85009C39860025006AA
:100455000201DD9850CAF582E9294B4A7005AB8245
:100465000201CC75F0007C1A7880C3EF9BEE9AED03
:1004750099400DC3EF9BFFEE9AFEED99FDE842F022
:10048500DC23ACF0D0E0FFD0E0FED0E0FDAB822075
:10049500E7101BEB60BAEC2CFCEF33FFEE33FEEDFF
:1004A50033FD0201B8E803F830E705C0F075F00048
:1004B500EF2FFFEE33FEED33FD40B830E7C280AAE3
:1004C5003F8000004120000042C80000447A00003F
:1004D500461C400047C35000497424004B189680C1
:1004E5004CBEBC205A0E1BCA6753C21C749DC5AEB8
:1004F500FB60065407601C2323120523EB54386068
:100505000912050F12051E120026ECF8EDF9EEFA98
:10051500EFCB22EB12051E80F1543803241C900406
:10052500C5FE93FC0EEE93FD0EEE930ECE93FF22C9
:0300000002156086
:0C156000787FE4F6D8FD7581210215A704
:10053500E709F608DFFA8046E709F208DFFA803EA8
:1005450088828C83E709F0A3DFFA8032E309F60895
:10055500DFFA8078E309F208DFFA807088828C83FD
:10056500E309F0A3DFFA806489828A83E0A3F608B1
:10057500DFFA805889828A83E0A3F208DFFA804C8B
:1005850080D280FA80C680D4806980F28033801062
:1005950080A680EA809A80A880DA80E280CA8033CB
:1005A50089828A83ECFAE493A3C8C582C8CCC58343
:1005B500CCF0A3C8C582C8CCC583CCDFE9DEE78013
:1005C5000D89828A83E493A3F608DFF9ECFAA9F092
:1005D500EDFB2289828A83ECFAE0A3C8C582C8CCE8
:1005E500C583CCF0A3C8C582C8CCC583CCDFEADE01
:1005F500E880DB89828A83E493A3F208DFF980CC63
:1006050088F0EF60010E4E60C388F0ED2402B4045B
:100615000050B9F582EB2402B4040050AF23234502
:060625008223900585739D
:10062B00BB010689828A83E0225002E722BBFE02CD
:09063B00E32289828A83E4932200
:10064400BB010CE58229F582E5833AF583E022506B
:1006540006E92582F8E622BBFE06E92582F8E222B5
:0D066400E58229F582E5833AF583E49322CF
:10067100BB010FF8E58229F582E5833AF583E0288D
:10068100F0225009C58229F8E58226F622BBFE092F
:10069100C58229F8E22582F222F8EA2583F583E969
:0306A10093282279
:1006A400BB010689828A83F0225002F722BBFE0135
:0206B400F3222F
:1006B600F8BB010DE58229F582E5833AF583E8F07A
:1006C600225006E92582C8F622BBFE05E92582C826
:0206D600F2220E
:1006D800C5F0F8A3E028F0C5F0F8E58215827002AD
:0606E8001583E038F0224A
:10184900C2D5E830E70FB2D5E4C39BFBE49AFAE4CA
:1018590099F9E498F8EC30E717B2D512187F120815
:10186900F6E4C39BFBE49AFAE499F9E498F8800357
:101879001208F630D50DE4C39FFFE49EFEE49DFDFA
:04188900E49CFC22BD
:0E06EE00C3E49FFFE49EFEE49DFDE49CFC221D
:1006FC00F8E0FBA3A3E0F925F0F0E5821582700287
:07070C001583E0FA38F0222A
:09071300EBF0A3EAF0A3E9F022E7
:10071C00BB010789828A830209AA5005E9F80209FC
:10072C0088BBFE05E9F80209B389828A830209D5E0
:10073C00BB010789828A830206FC5006C9F8C902EC
:10074C000991BBFE06C9F8C90209BC89828A8302D9
:02075C0009D5BD
:10075E00BB011A89828A83D0F0D0E0F8D0E0F9D0BC
:10076E00E0FAD0E0FBE8C0E0C0F00207135016E953
:10077E00F8D083D082D0E0F9D0E0FAD0E0FBC0828E
:10078E00C0830209A1BBFE16E9F8D083D082D0E067
:0F079E00F9D0E0FAD0E0FBC082C0830209CC2280
:1007AD00BB010DE58229F582E5833AF5830209AA9D
:1007BD005007E92582F8020988BBFE07E92582F872
:1007CD000209B3E58229F582E5833AF5830209D55D
:1007DD00BB010DC58229C582C5833AC5830206FCBE
:1007ED005008F8E92582C8020991BBFE08F8E925F1
:1007FD0082C80209BCC58229C582C5833AC5830258
:02080D0009D50B
:10080F00BB0120E58229F582E5833AF583D0F0D04C
:10081F00E0F8D0E0F9D0E0FAD0E0FBE8C0E0C0F0BB
:10082F000207135018E92582F8D083D082D0E0F95F
:10083F00D0E0FAD0E0FBC082C0830209A1BBFE1852
:10084F00E92582F8D083D082D0E0F9D0E0FAD0E069
:09085F00FBC082C0830209CC2217
:10086800D083D082F8E4937012740193700DA3A31F
:1008780093F8740193F5828883E473740293686033
:06088800EFA3A3A380DF33
:10088E00EF4E6012EF60010EEDBB010B89828A8381
:10089E00F0A3DFFCDEFA2289F05007F709DFFCA98E
:0C08AE00F022BBFEFCF309DFFCA9F022E5
:10156C00021B61E493A3F8E493A34003F68001F219
:10157C0008DFF48029E493A3F85407240CC8C33380
:10158C00C4540F4420C8834004F456800146F6DF4F
:10159C00E4800B01020408102040809019EEE47ED8
:1015AC00019360BCA3FF543F30E509541FFEE49344
:1015BC00A360010ECF54C025E060A840B8E493A30B
:1015CC00FAE493A3F8E493A3C8C582C8CAC583CA36
:1015DC00F0A3C8C582C8CAC583CADFE9DEE780BEEE
:011A150000D0
:1008BA0075F008758200EF2FFFEE33FECD33CDCCF5
:1008CA0033CCC58233C5829BED9AEC99E582984078
:1008DA000CF582EE9BFEED9AFDEC99FC0FD5F0D655
:1008EA00E4CEFBE4CDFAE4CCF9A88222B800C1B97F
:1008FA000059BA002DEC8BF084CFCECDFCE5F0CBBD
:10090A00F97818EF2FFFEE33FEED33FDEC33FCEBF5
:10091A0033FB10D703994004EB99FB0FD8E5E4F9B0
:10092A00FA227818EF2FFFEE33FEED33FDEC33FC9D
:10093A00C933C910D7059BE99A4007EC9BFCE99A91
:10094A00F90FD8E0E4C9FAE4CCFB2275F010EF2FD6
:10095A00FFEE33FEED33FDCC33CCC833C810D707D6
:10096A009BEC9AE899400AED9BFDEC9AFCE899F811
:0E097A000FD5F0DAE4CDFBE4CCFAE4C8F922A4
:09098800E6FB08E6FA08E6F92294
:10099100FAE6FB0808E6F925F0F618E6CA3AF62267
:0909A100EBF608EAF608E9F6227B
:0909AA00E0FBA3E0FAA3E0F9224E
:0909B300E2FB08E2FA08E2F92275
:1009BC00FAE2FB0808E2F925F0F218E2CA3AF22250
:0909CC00EBF208EAF208E9F2225C
:0C09D500E493FB740193FA740293F9227E
:00000001FF
